:1000000017EF03F00000000000EF00F00000000018
:0A0010000000000000000000F3D71C
:10001C003A0E0C6E230E0D6E0D2EFED70C2EFCD749
:02002C001200C0
:0C002E00020E0D6E0D2EFED70000120019
:0A003A00850E0D6E0D2EFED712008C
:1000440041BE02D08A9601D08A8641BC02D08A94ED
:1000540001D08A8441BA02D08A9201D08A8241B8FE
:1000640002D08A9001D08A8031B002D08A8801D02F
:100074008A988A8ADADF8A9A41B602D08A9601D0AF
:100084008A8641B402D08A9401D08A8441B202D0D3
:100094008A9201D08A8241B002D08A9001D08A80AB
:1000A40031B002D08A8801D08A988A8ABEDF8A9ABF
:0C00B40031A002D0B1DF01D0BEDF12008D
:0C00C000319040C041F0BEDF31801200E2
:1000CC00086A096A100E0C6E0134083609360450A1
:1000DC00085E0550D8A0053C095ED8B007D0045086
:1000EC0008260550D8B0053C0926D89000360136B4
:0600FC000C2EEAD71200F1
:10010200086A080E0C6E003408360450085ED8B037
:0E01120002D00826D89000360C2EF5D7120029
:100120000B6A0A6A096A00500402F4CF09F0F3CF9F
:1001300008F001500502F4CF0BF0F3CF0AF00050A5
:100140000502F3500926F4500A22E86A0B220150F6
:100150000402F3500926F4500A22E86A0B2208C070
:1001600000F009C001F00AC002F00BC003F0120059
:100170000FD0800E3B6E19D0C00E3B6E16D0940E81
:100180003B6E13D0D40E3B6E10D0800E3B6E0DD064
:100190003B50010AEEE03B50020AEEE03B50030AFE
:1001A000EEE03B50040AEEE0F0D73C04006E3B501A
:1001B000002600C03BF000C041F044DF31903F6AB0
:1001C0003F503D24E96E000E3E20EA6EEE520BE0F9
:1001D0003F503D24E96E000E3E20EA6EEECF40F027
:0A01E0006FDF3F2AEDD731801200D7
:0E01EA00CF0E0D6E0D2EFED70000000012008D
:1001F800060E0C6E2B0E0D6E0D2EFED70C2EFCD798
:020208001200E2
:10020A000900F5CFE6FF0006FBE10106F9E112005D
:10021A000FD0800E346E19D0C00E346E16D0940EE4
:10022A00346E13D0D40E346E10D0800E346E0DD0CE
:10023A003450010AEEE03450020AEEE03450030A68
:10024A00EEE03450040AEEE0F0D73504006E345084
:10025A00002600C034F0318000C041F0EEDE31905B
:0A026A0036C041F0EADE31801200D8
:10027400939A939893909392939493968A9A8A9844
:100284008A968A948A928A90C7DEC6DEC5DE8A82FE
:100294008A808A8ACADE8A9ABFDE8A8AC6DE8A9AF7
:1002A400BBDE8A8AC2DE8A9AB7DE8A908A8ABDDE7B
:1002B4008A9AB2DE8A8AB9DE8A9A8A928A868A8A77
:1002C400B4DE8A9AA9DE8A968A808A8AAEDE8A9AFF
:1002D4008A908A8AAADE8A9A9FDE8A8AA6DE8A9A07
:1002E4008A808A8AA2DE8A9A97DE8A908A8A9DDE2A
:1002F4008A9A8A868A848A828A808A8A96DE8A9AF6
:060304008BDE31801200C7
:10030A0036C001F0010E006E015004E00036009084
:10031A00FF0FFBD700C038F0001E34C0E9FF35C01C
:10032A00EAFF0050EF16120EE9260050EF165FDFC3
:10033A003850EF12120EE95E53DF3850EF14376E61
:10034A003750000A000ED8A4010E376E50DF37C0AE
:04035A0000F012009D
:10035E0035AE0AD026C0E1FF27C0E2FF2D0EE66EB5
:10036E00341E351E344A352A34C000F035C001F033
:10037E0001320032019E00C036F0640E046EBADE09
:10038E00005212E026C039F027C03AF0640E046E17
:10039E0036C000F0AFDE300E002639C0E1FF3AC0A5
:1003AE00E2FF00C0E6FF06D026C0E1FF27C0E2FF55
:1003BE00300EE66E010E2624396E000E27203A6EA0
:1003CE000A0E046E36C000F095DE0A0E046E92DE42
:1003DE0008C000F0300E002639C0E1FF3AC0E2FF3F
:1003EE0000C0E6FF020E2624396E000E27203A6E5C
:1003FE000A0E046E36C000F07DDE08C000F0300E2E
:10040E00002639C0E1FF3AC0E2FF00C0E6FF34C06B
:10041E0000F035C001F00036009001360036009035
:10042E00013600360090013600C037F001C038F0BA
:10043E000F0E0016000E011600C037F001C038F086
:10044E00710E046E020E056E64DE00C037F001C040
:10045E0038F0040E2624396E000E27203A6EE80E70
:10046E00046E030E056E2BDE300E002639C0E1FF42
:10047E003AC0E2FF00C0E6FF050E2624396E000EDC
:10048E0027203A6E640E046E000E056E37C000F023
:10049E0038C001F014DE0A0E046E000E056E0FDE7B
:1004AE0008C000F009C001F0300E002639C0E1FF8F
:1004BE003AC0E2FF00C0E6FF060E2624396E000E9B
:1004CE0027203A6E0A0E046E000E056E37C000F03D
:1004DE0038C001F0F4DD0A0E046E000E056EEFDD7D
:1004EE0008C000F009C001F0300E002639C0E1FF4F
:1004FE003AC0E2FF00C0E6FF070E2624396E000E5A
:10050E0027203A6E0A0E046E000E056E37C000F0FC
:10051E0038C001F0D4DD08C000F009C001F0300E83
:10052E00002639C0E1FF3AC0E2FF00C0E6FF020E2E
:10053E003B6E050E3C6E26C03DF027C03EF011DE30
:02054E00120099
:1005500036C001F0010E006E015004E0003600903C
:10056000FF0FFBD700C03AF0001C396E386A34C068
:10057000E9FF35C0EAFF376A3750070820E33950F2
:10058000EF16120EE9263950EF1651DD3A50EF12F0
:100590004EDD120EE95E3A50EF14006E0CE037C0EB
:1005A00001F0010E006E015004E000360090FF0FD4
:1005B000FBD70050381241DD40DD372ADDD738C087
:0405C00000F0120035
:1005C40036C001F0010E006E015004E000360090C8
:1005D400FF0FFBD700C03AF0001E00C039F034C052
:1005E400E9FF35C0EAFF0050EF16120EE926386A1B
:1005F4003850070815E338C000F037C001F0005048
:1006040004E00132019EFF0FFBD73950EF1601A021
:1006140002D03A50EF12E7DD3A50EF12382AE8D709
:0A062400120EE95E08DD07DD12008A
:10062E00B7EC03F00F013C6B96841DDE010E416E9C
:10063E0002DD0C0E416EFFDC010E3B6E010E3C6EB8
:10064E00150E3D6E000E3E6E8CDD020E346E0D0EDE
:10065E00356EDF0E366EDADD020E346E0E0E356E30
:10066E00430E366ED3DD840E346E0F0E356E020ED3
:10067E00366E44DE840E346E0F0E356E020E366EFE
:10068E00CC0E376E98DF840E346E0F0E356E020E62
:10069E00366E440E376E8FDF020E0C6E3D0E0D6EF3
:1006AE000D2EFED70C2EFCD700000000840E346EEB
:1006BE000F0E356E020E366E21DE840E346E0F0E68
:1006CE00356E020E366ECC0E376E75DF840E346EBE
:1006DE000F0E356E020E366EBE0E376E6CDF840E4A
:1006EE00346E0F0E356E020E366E2BDF00C032F0FA
:1006FE00000E336E840E346E0F0E356E020E366E95
:10070E0020DF00C003F0026A32500224006E335024
:10071E000320016E00C032F001C033F000C034F08F
:10072E0001C035F015DE150E0B6E4B0E0C6EBE0EA7
:10073E000D6E0D2EFED70C2EFCD70B2EFAD7000009
:04074E0092D7FFD768
:10076E0010EE15F01C0E006E010E016E520EF66E9E
:0E077E00070EF76E000EF86E05EC01F012008B
:100752002054656D70657261747572653A2020204F
:010762000096
:0207630028006C
:090765003030302E30303030000D
:020000040030CA
:0D000100331F3CFFBD81FF0FC00FE00F401B
:00000001FF
