:10000000002AFF3FFF3FFF3F4E3003138316A0003F
:100010006130A1004E30A200A3013030A400A50140
:100020004930A6004E30A7004630A800A901AA0119
:10003000AD0183125F088316AE0083126008831639
:10004000AF00831261088316B00083126208831622
:10005000B1003108FF3A031D37283008FF3A031D6D
:1000600037282F08FF3A031D37282E08FF3A031DB3
:10007000442883126308E400A030E5008A154E206E
:100080008A110330F000080001308316AB00B01F66
:1000900052288030B006AB0A8312630884002D30EA
:1000A0008000E30A0030F00083163106031D622849
:1000B00070083006031D622870082F06031D622891
:1000C0002E08003A031D6E2883126308E400A43052
:1000D000E5008A154E208A11F001080083163108C8
:1000E0007F3A031D7D283008803A031D7D282F08A4
:1000F000003A031D7D282E08003A031D8B28831229
:100100006308E400A630E5008A154E208A118316A4
:100110002B08F00008000030F4000030F50000303B
:10012000F6007F30F7002E08F0002F08F1003008AD
:10013000F2003108F300E825013003180030F00028
:1001400070080319C02883162E08F0002F08F1004C
:100150003008F2003108F3000030F4000030F50000
:100160002030F6008230F700C42470088316AE00F9
:100170007108AF007208B0007308B100AD038B289E
:10018000031383160030F4000030F5002030F60031
:100190008230F7002E08F0002F08F1003008F2003E
:1001A0003108F300E8250130031C0030F00070082E
:1001B0000319F72883162E08F0002F08F1003008E5
:1001C000F2003108F300CD30F400CC30F5004C30B3
:1001D000F6007B30F700C42470088316AE00710867
:1001E000AF007208B0007308B100AD0AC028031355
:1001F0008316FF302E05F500FF302F05F6007F3007
:100200003005F70000303105F8007508F000760879
:10021000F1007708F2007808F300F00DF10DF20D0F
:10022000F30D70100030AE050030AF050030B005A2
:10023000FF30B1057008AE047108AF047208B00455
:100240007308B1047F303102F0007008AC00013057
:10025000B100700803193329AE0DAF0DB00DB10D0B
:100260002E10FF3F2A293108303FF0008312630827
:10027000840070088000E30A803083162D06F000A9
:100280008030013A7002031C4D298030063AF0009C
:1002900080302D06700203185629831263088400EB
:1002A0002E308000E30A01308316AA000630AC002D
:1002B0002C08003A0319A029B1012E08F0002F08DC
:1002C000F1003008F2003108F300F00DF10DF20DED
:1002D000F30D7010F00DF10DF20DF30D70107008AC
:1002E000AE0771080318710FAF0772080318720F79
:1002F000B00773080318730FB107AE0DAF0DB00D43
:10030000B10D2E103108303FF000831263088400D5
:1003100070088000E30A83162A08003A031D9E290C
:10032000AD032D08003A031D9E2983126308840043
:100330002E308000E30A01308316AA00AC0358294E
:10034000FF308312630784000008F4007408303A19
:10035000031DAC29E303A029FF30630784000008D4
:10036000F40074082E3A031DB629E30383162D0802
:10037000003A0319F929831263088400653080006C
:10038000E30A803083162D06F0008030003A7002B8
:100390000318D4298312630884002D308000E30AF7
:1003A00083162D08003CAD002D08AC002D08093C3B
:1003B0000318E8290A30F4002C08F0008A15682098
:1003C0008A113030F0076308840070088000E30A67
:1003D0000A30F40083162C08F0008A1568208A1170
:1003E0007808F0003030F00763088400700880005F
:1003F000E30A03138312630884008001F0010800FC
:10040000BF260830DF0078240C30E70038260130A2
:10041000E70038260230DF00F0237008A3007108DF
:10042000A4007008DF007108E0004830E1008F256B
:100430000130E70038260130DF000130E0003008ED
:10044000E1007A260130DF000C30E0004830E100A6
:100450007A268030F000803024067002031D322A94
:1004600023085A3C03187E2A05302307F00024088D
:100470000318013FF1000030F10709277008F4006C
:100480007108F5007208F6007308F7000030F000FC
:100490002030F1003630F2008A30F3004C23003077
:1004A000F4000030F5000030F6007F30F7008A15C8
:1004B000A0208A117008CE007108CF007208D00009
:1004C0007308D1007008DF007108E0007208E100D5
:1004D0007308E2005230E300042002300313831259
:1004E000DF000130E0003908E1007A260230DF0049
:1004F0000530E0005230E1007A26852A0230DF0024
:100500000130E0004708E1007A260B30FC00FF30A4
:10051000FB00FF30FA00FC0B8E2A952AFB0B912A78
:10052000942AFA0B912A8E2A8B2A3330FB00FF3053
:10053000FA00FB0B9C2A9F2AFA0B9C2A992A8730E7
:10054000FA00FA0BA12A0000000000000A2AA72ADC
:100550000313831272087606A000F801F9017308EC
:100560007702031CCB2A7708FD007308F7007D088B
:10057000F3007608FD007208F6007D08F2007508A9
:10058000FD007108F5007D08F1007408FD00700899
:10059000F4007D08F00077080319482B7208FA0070
:1005A000F217F61777087302F7000319FE2A0830CE
:1005B0007702031CF42AF7007408F9007508F400A8
:1005C0007608F500F60108307702031CF42AF700DC
:1005D0007408F9007508F400F50108307702031C6F
:1005E000F42A7A08F200482B77080319FE2A031030
:1005F000F60CF50CF40CF90CF70BF72AA01F0B2BDB
:10060000F909F409F509F609F90A0319F40A0319B5
:10061000F50A0319F60A7908F80774080318740F25
:10062000F00775080318750FF10776080318760FA1
:10063000F207A01B242B031C342BF20CF10CF00C42
:10064000F80CF30F342B422B0318382BF809F00960
:10065000F109F209F80A0319F00A0319F10A03195A
:10066000F20A8030FA063C2B0130FC002B254A2B85
:100670000230FC002B254A2B0430FC008A15002098
:100680008A114A2B0830FC008A1579208A114A2BDE
:100690000030FC00000008000313831277080319E0
:1006A000DB2B73080319E02B720876068039FA00F9
:1006B000F217F617A0017208F8007108FC00700824
:1006C000FD007408FD027508031C750FFC02760816
:1006D000031C760FF802F801FC01FD01031C772BC7
:1006E0000310F20CF10CF00CF80C0130A0007708AC
:1006F000F302031C812B7E302007F3070318E52B40
:10070000862B7E302007F307031CEA2B1830FA07EC
:10071000FD0DFC0DF80DF00DF10DF20DA00D74089E
:10072000F0027508031C750FF1027608031C760FA2
:10073000F202760DA004201C9F2B7D14AA2B7408B6
:10074000F00775080318750FF10776080318760A85
:10075000F2077D10FA031F307A05031D882B7B1BDF
:100760007D1CD12B0310F00DF10DF20DA00D7408BE
:10077000F0027508031C750FF1027608031C760F52
:10078000F202760D20040139FD070318FC0A031953
:10079000F80A031DD12BF80CFC0CFD0CF30A03190D
:1007A000E52BFA1FF8137808F2007C08F1007D08A9
:1007B000F0000030EE2B01308A15BF208A11EE2B9D
:1007C00002308A15A8208A11EE2B04308A15792070
:1007D0008A11EE2B08308A1587208A110000080044
:1007E0000030031383125F02031C092C5F08033CD3
:1007F000031C092C5F08F2000130F0007208031995
:10080000052CF00D7010FF3FFF2B70088316850438
:100810002B2C83125F08043A031D112C83168516B6
:100820002B2C053083125F02031C2B2C5F08073C26
:10083000031C2B2C05305F02F0007008F200013021
:10084000F00072080319282CF00D7010FF3F222CC5
:100850007008831689040313831683125F08F2005D
:100860000130F00072080319392CF00D7010FF3FB1
:10087000332C70080317831688040230F400031326
:1008800083125F08F000740803194A2CF00D7010F1
:10089000FF3F442C7008C13F9F001030FA00FA0B54
:1008A0004F2C00009F149F18532C0230F4001E0898
:1008B000E000E10174080319622CE00DE10D601005
:1008C000FF3F5B2C0630F40083161E08F00074080E
:1008D00003196E2CF00CF013FF3F682C0030F10070
:1008E00083126008F00761080318013FF107080050
:1008F0002927292729275F08A1005F08840084177A
:100900008011001100108013001380120012841354
:100910008011001100108013001380120012801645
:100920000016801580112927801580112927801530
:100930008011292780160012801580112927800137
:10094000801680158011800180178015801129275D
:1009500080010016801580118001801580112927E3
:1009600080018015801100168015801129278001D3
:1009700080158011001680160017801780158011D1
:1009800029270130A200080003138312FB0173081A
:10099000031D770803191B2D72087606FA007708E5
:1009A000F3077E30031CD82CF3020318202DDB2C18
:1009B000F302031C252D7208F8007108FC00700872
:1009C000FD00F817F6170310F201F101F0011830DD
:1009D000A0007D1CF52C7408F00775080318750F2E
:1009E000F10776080318760FF207F20CF10CF00C01
:1009F000F80CFC0CFD0C0310A00BE92CF21B052DD0
:100A0000F80DF00DF10DF20DF3037B1B701C172D8B
:100A1000F81F172DF00A0319F10A0319F20A031D32
:100A2000172DF20CF10CF00CF30A0319202DFA1F0C
:100A3000F2130030292D01308A15A8208A11292DA2
:100A400002308A1579208A11292D04308A158720D1
:100A50008A1100000800031383127C18632DFC1810
:100A6000342D7C19882D2D2DA0017208031D542DC5
:100A70007108F2007008F1007808F000F801A01584
:100A80007208031D542D7108F2007008F100F00186
:100A9000A01120167208031D542D7108F200F101F7
:100AA000A01572080319762D2008F302031D031CFC
:100AB0007C2D0310F21B632DF80DF00DF10DF20DDE
:100AC000F30B5A2D7C2D7B1B701C822DF81F822D61
:100AD000F00A0319F10A0319F20A031D822DF20C20
:100AE000F10CF00CF30A0319882D822D0130FC0063
:100AF0008A15A8208A118D2D0230FC008A158720C6
:100B00008A118D2D0430FC008A15B9208A118D2D93
:100B10000830FC008A1579208A11000008000313B0
:100B200083126108840020308000610AF0007008A0
:100B300084002030800002306107F00070088400DB
:100B40002030800003306107F000700884002030FE
:100B5000800004306107F0007008840030308000AD
:100B600005306107F0007008840080010430E20065
:100B70006008003C031DBE2D5F08003C0318E72DF4
:100B800062086107E3000A30F400F5015F08F00035
:100B90006008F1008A1531208A117808F000790880
:100BA000F1003030F00763088400700880000A30DC
:100BB000F400F5015F08F0006008F1008A153120AB
:100BC0008A117008DF007108E000E203B82D080008
:100BD00003138312FA017308031D7A147708031DA7
:100BE000FA147A080319342E033A0319FF2D7A18E0
:100BF000FC2DF61F322E302EF21F302E322E7208B0
:100C00008039FA00F21376088039F6137A06031950
:100C10000D2E7A080319302E322E7708730203192D
:100C2000142E031C282E2C2E7608720203191B2E5C
:100C3000031C282E2C2E750871020319222E031C6A
:100C4000282E2C2E740870020319342E03182C2E13
:100C5000FA080319322E302EFA080319302E322EDC
:100C6000031408000310080003140315080008000B
:100C70000313831221088400670803193F2E801193
:100C800000118013001380120012E71B8017671BEE
:100C90000017E71A8016671A001622080319522E49
:100CA0000011532E001580158A15B1208A1167088E
:100CB00003195A2E801100118013001380120012A4
:100CC000E719801767190017E718801667180016CC
:100CD000220803196D2E00116E2E001580158A153D
:100CE000B1208A11801122080319782E2927792E24
:100CF0003A2708008C2E803003138312DF009F2ECA
:100D0000C030DF009F2E9430DF009F2ED430DF00F4
:100D10009F2E8030DF009F2E031383125F08013A5D
:100D200003197B2E5F08023A0319802E5F08033AED
:100D30000319832E5F08043A0319862E892E600357
:100D4000F0005F08F0077008DF007008E700382641
:100D5000A201E2016208610784000008F000700847
:100D60000319BC2E6208610784000008E4008A159C
:100D700095208A11E20AAA2E0130A2000800003054
:100D800003138312A3000030A4005230A5004130A9
:100D9000A6005730A7002030A8005630A9006130C7
:100DA000AA006C30AB007530AC006530AD003D3052
:100DB000AE00AF012530B0004630B1006130B20066
:100DC0007230B3003D30B4002030B5004330B6007F
:100DD0004D30B700B8013130B9004F30BA0075302E
:100DE000BB007430BC002030BD006F30BE006630E8
:100DF000BF002030C0005230C1006130C2006E30F0
:100E0000C3006730C4006530C500C6013A30C70072
:100E10000800031383127008F8007108F000F10154
:100E2000F201F301FB01FC019630F300FA01F01F1F
:100E30001F2FF809F009F80A0319F00AFA177008C9
:100E4000F1007808F000F801F2018A1500208A11FB
:100E50000800243003138312FB00FF30FA00FB0B61
:100E6000322F352FFA0B322F2F2F9E30FA00FA0B2C
:100E7000372F0800533003138312FA00FA0B3E2F6A
:100E80000800FF3FFF3FFF3FFF3FFF3FFF3FFF3FA8
:100E9000FF3FFF3FFF3FFF3FFF3FFF3FFF3FFF3F62
:100EA000FF3FFF3FFF3FFF3FFF3FFF3FFF3FFF3F52
:100EB000FF3FFF3FFF3FFF3FFF3FFF3FFF3FFF3F42
:100EC000FF3FFF3FFF3FFF3FFF3FFF3FFF3FFF3F32
:100ED000FF3FFF3FFF3FFF3FFF3FFF3FFF3FFF3F22
:100EE000FF3FFF3FFF3FFF3FFF3FFF3FFF3FFF3F12
:100EF000FF3FFF3FFF3FFF3FFF3FFF3FFF3FFF3F02
:100F0000FF3FFF3FFF3FFF3FFF3FFF3FFF3FFF3FF1
:100F1000FF3FFF3FFF3FFF3FFF3FFF3FFF3FFF3FE1
:100F2000FF3FFF3FFF3FFF3FFF3FFF3FFF3FFF3FD1
:100F3000FF3FFF3FFF3FFF3FFF3FFF3FFF3FFF3FC1
:100F4000FF3FFF3FFF3FFF3FFF3FFF3FFF3FFF3FB1
:100F5000FF3FFF3FFF3FFF3FFF3FFF3FFF3FFF3FA1
:100F6000FF3FFF3FFF3FFF3FFF3FFF3FFF3FFF3F91
:100F7000FF3FFF3FFF3FFF3FFF3FFF3FFF3FFF3F81
:100F8000FF3FFF3FFF3FFF3FFF3FFF3FFF3FFF3F71
:100F9000FF3FFF3FFF3FFF3FFF3FFF3FFF3FFF3F61
:100FA000FF3FFF3FFF3FFF3FFF3FFF3FFF3FFF3F51
:100FB000FF3FFF3FFF3FFF3FFF3FFF3FFF3FFF3F41
:100FC000FF3FFF3FFF3FFF3FFF3FFF3FFF3FFF3F31
:100FD000FF3FFF3FFF3FFF3FFF3FFF3FFF3FFF3F21
:100FE000FF3FFF3FFF3FFF3FFF3FFF3FFF3FFF3F11
:100FF000FF3FFF3FFF3FFF3FFF3FFF3FFF3FFF3F01
:1010000003138312A0017208031D17287108F20050
:101010007008F100F001A0157208031D172871086F
:10102000F200F101A01120167208031925282008EA
:10103000F302031D031C29280310F21B2D28F00DB9
:10104000F10DF20DF30B1D2829280130FC00A8201A
:1010500030280230FC00872030280430FC00B92002
:10106000080003138312F801F9011030FC00710D20
:10107000F80DF90D7408F8027508031C750FF902D4
:10108000031849287408F80775080318750FF9073D
:101090000310F00DF10DFC0B372808000313831229
:1010A0006408E6006608F100E60A65088400E50ABF
:1010B0000008F00071088400700880007108840046
:1010C0000008F0007008031D52286408F0000800B2
:1010D00003138312F8010830FC00700DF80D74083A
:1010E000F80203187528F8070310F00DFC0B6D28A3
:1010F000080003138312FB14FB1F8528FF30F30045
:10110000F200F100F000FA0DF20CFF3008000313BA
:1011100083127B15FB1F93280130F300F201F101CC
:10112000F001FA0DF20CFF30080003138312A20144
:101130006408E7008A1138268A150130A2000800E9
:10114000031383128030F6068A11A8228A1508003C
:1011500003138312F201F101F001F801F3010030F1
:101160000800013003138312FA00FA0BB5280000BF
:10117000080003138312FA1FF21300300800031350
:101180008312FB15FF300800FF3FFF3FFF3FFF3F8B
:04400E00F22FFFFF8F
:00000001FF
