:100000009829FF3FFF3FFF3FFF00030E8301B80029
:100010000408B7000A08B9008A017B08D1007A08F1
:10002000D0007108CF007008CE008B1C5928033017
:10003000FB00FF30FA00FB0B1E282128FA0B1E28BC
:100040001B28B030FA00FA0B232800000000B6018C
:1000500008303602031848280630FB00FF30FA004B
:10006000FB0B33283628FA0B332830286330FA008C
:10007000FA0B382800000000A10CA113013006057E
:10008000F1007108013A031D4628A117B60A282875
:100090000630FB00FF30FA00FB0B4F285228FA0B0A
:1000A0004F284C286330FA00FA0B54280000000057
:1000B0008B105108FB005008FA004F08F1004E0861
:1000C000F00039088A0037088400380E8300FF0EDC
:1000D0007F0E0900031383127408F8027508031CCD
:1000E000750FF9027608031C760FFA027708031CD5
:1000F000770FFB02F30D0730FC00730DF80DF90DBF
:10010000FA0DFB0D7408731C9328F8027508031C84
:10011000750FF9027608031C760FFA027708031CA4
:10012000770FFB02A028F80775080318750FF90769
:1001300076080318760FFA0777080318770FFB077E
:10014000F30DFC0B7D28720DF80DF90DFA0DFB0D6A
:100150007408731CB928F8027508031C750FF9029E
:100160007608031C760FFA027708031C770FFB0250
:10017000C628F80775080318750FF90776080318DD
:10018000760FFA0777080318770FFB07F20D073091
:10019000FC00720DF80DF90DFA0DFB0D7408721CC0
:1001A000DF28F8027508031C750FF9027608031C96
:1001B000760FFA027708031C770FFB02EC28F8078A
:1001C00075080318750FF90776080318760FFA07F4
:1001D00077080318770FFB07F20DFC0BC928710D88
:1001E000F80DF90DFA0DFB0D7408721C0529F802C3
:1001F0007508031C750FF9027608031C760FFA02C6
:100200007708031C770FFB021229F80775080318FB
:10021000750FF90776080318760FFA0777080318A1
:10022000770FFB07F10D0730FC00710DF80DF90D8C
:10023000FA0DFB0D7408711C2B29F8027508031CBC
:10024000750FF9027608031C760FFA027708031C73
:10025000770FFB023829F80775080318750FF9079F
:1002600076080318760FFA0777080318770FFB074D
:10027000F10DFC0B1529700DF80DF90DFA0DFB0DA4
:100280007408711C5129F8027508031C750FF902D6
:100290007608031C760FFA027708031C770FFB021F
:1002A0005E29F80775080318750FF9077608031813
:1002B000760FFA0777080318770FFB07F00D073062
:1002C000FC00700DF80DF90DFA0DFB0D7408701C93
:1002D0007729F8027508031C750FF9027608031CCC
:1002E000760FFA027708031C770FFB028429F807C0
:1002F00075080318750FF90776080318760FFA07C3
:1003000077080318770FFB07F00DFC0B61297018B5
:1003100097297408F80775080318750FF907760808
:100320000318760FFA0777080318770FFB07080002
:100330009125031783160912031301130B168B174C
:1003400008308312BB00B0230130CA00FC230C30FC
:10035000CA00FC230130BB000130BC003508BD00E1
:100360003A240730BB00BC01D025C430BB000930A3
:10037000BC009030BD000130BE0070229126700894
:10038000BA007008613A0319C9293A08413A031DB5
:10039000EC29FF30BB00F3250230FC00FF30FB00EE
:1003A000FF30FA00FC0BD529DC29FB0BD829DB290F
:1003B000FA0BD829D529D2294630FB00FF30FA00A4
:1003C000FB0BE329E629FA0BE329E029CF30FA00F9
:1003D000FA0BE82900006E2A3A08623A0319F42958
:1003E0003A08423A031D172AFF30BB00FA250230B3
:1003F000FC00FF30FB00FF30FA00FC0B002A072A4C
:10040000FB0B032A062AFA0B032A002AFD29463091
:10041000FB00FF30FA00FB0B0E2A112AFA0B0E2A02
:100420000B2ACF30FA00FA0B132A00006E2A3A0882
:10043000633A03191F2A3A08433A031D422AFF3040
:10044000BB00EC250230FC00FF30FB00FF30FA005F
:10045000FC0B2B2A322AFB0B2E2A312AFA0B2E2ACE
:100460002B2A282A4630FB00FF30FA00FB0B392AE2
:100470003C2AFA0B392A362ACF30FA00FA0B3E2AE8
:1004800000006E2A3A08643A03194A2A3A08443AA4
:10049000031D6D2AFF30BB0010260230FC00FF3028
:1004A000FB00FF30FA00FC0B562A5D2AFB0B592A91
:1004B0005C2AFA0B592A562A532A4630FB00FF3091
:1004C000FA00FB0B642A672AFA0B642A612ACF30F0
:1004D000FA00FA0B692A00006E2A1726BE296F2A35
:1004E0005826E830F4000330F500F601F70139250D
:1004F0007008C1007108C2007208C3007308C4000C
:100500003B08F4003C08F500F601F70116237008DB
:10051000C1007108C2007208C3007308C400033030
:10052000F400740803199B2AF30CF20CF10CF00C84
:10053000F313FF3F922A7008BF007108C0005826CD
:100540003D08F4003E08F500F601F7013925700872
:10055000C5007108C6007208C7007308C8003F08CC
:10056000F0004008F100F201F3010330F4007408D8
:100570000319C12AF00DF10DF20DF30D7010FF3FBC
:10058000B82A7008F4007108F5007208F6007308C4
:10059000F7004508F0004608F1004708F200480857
:1005A000F30016237008C1007108C2007208C3006E
:1005B0007308C4000A30F4000030F5003F08F00072
:1005C0004008F100B3257008BF007108C00000307A
:1005D0007102031DED2A033070020318F02A08008F
:1005E000260884004108F0004208F1004308F200A8
:1005F0004408F3000130C102031CC202031CC30201
:10060000031CC40270087104720473040319132BD1
:10061000270880043F08C9003026280880053F08C5
:10062000C9003026F22A2808800508000313831227
:10063000FC01F71BFC0AFD01FB01FA01F901F801BD
:1006400073087204710470040319AA2B73087706E7
:10065000A000A01BFD09F71F382BF409F509F609C6
:10066000F709F40A0319F50A0319F60A0319F70A38
:10067000F31F452BF009F109F209F309F00A0319F8
:10068000F10A0319F20A0319F30A73087704A000A8
:10069000A01B662B6A20FC1B832BFD1FAA2BF009D5
:1006A000F109F209F309F00A0319F10A0319F20A30
:1006B0000319F30AF809F909FA09FB09F80A0319F9
:1006C000F90A0319FA0A0319FB0AAA2BF71F7D2B53
:1006D000F31B772B7308FB007208FA007108F9000E
:1006E0007008F800F301F201F101F0014D2BF30164
:1006F000F201F101F001F00A0034F309F209F10905
:10070000F009FC174A2BF80A0319F90A0319FA0A27
:100710000319FB0A74087802031D4D2B7508790232
:10072000031D4D2B76087A02031D4D2B77087B02A3
:10073000031D4D2BFB01FA01F901F801F00A031921
:10074000F10A0319F20A0319F30AF31F4D2BA00152
:100750002016FF34A0017C1CAE2B4126003F080070
:100760001F261F261F263B08A2003B088400841773
:1007700080110011001080130013801200128413E6
:1007800080110011001080130013801200128016D7
:100790000016801580111F26801580111F268015D8
:1007A00080111F2680160012801580111F268001DF
:1007B00080168015801180018017801580111F26FA
:1007C00080010016801580118001801580111F2680
:1007D0008001801580110016801580111F26800170
:1007E0008015801100168016001780178015801163
:1007F0001F260130A300080003138312220884007F
:100800004A080319032C8011001180130013801271
:100810000012CA1B80174A1B0017CA1A80164A1AF0
:10082000001623080319162C0011172C001580152B
:1008300069264A0803191C2C80110011801300132B
:1008400080120012CA1980174A190017CA18801698
:100850004A180016230803192F2C0011302C0015FC
:1008600080156926801123080319382C1F26392C7E
:10087000A92608004C2C803003138312BB005F2C88
:10088000C030BB005F2C9430BB005F2CD430BB0069
:100890005F2C8030BB005F2C031383123B08013AAE
:1008A00003193B2C3B08023A0319402C3B08033A3E
:1008B0000319432C3B08043A0319462C492C3C03EA
:1008C000F0003B08F0077008BB007008CA00FC236A
:1008D000A301BE013E083D0784000008F000700837
:1008E00003197A2C3E083D0784000008C9004F26F2
:1008F000BE0A6A2C0130A300080003138312FB0117
:10090000FA01F9018030F800FD01F11F8D2CF10989
:10091000F009F00A0319F10AFD0AF51F952CF509F3
:10092000F409F40A0319F50AFD0AF10CF00C031C92
:10093000A22C7408F90775080318750FFA07031835
:10094000FB0A0310F01FAA2C7408FA070318FB0A0D
:100950007508FB07FB0CFA0CF90CF80C031C952C22
:100960007D1CBD2CFB09FA09F909F809F80A0319DD
:10097000F90A0319FA0A0319FB0A7B08F3007A083B
:10098000F2007908F1007808F00000000800031375
:1009900083161208013FF000F1010318F10A8312D7
:1009A0004A08F400F5017D240630F2007008F400D6
:1009B0007108F50072080319E22CF50CF40CF5131C
:1009C000FF3FDB2C7408F000F00D7010F00D70107C
:1009D000F00D7010F00D701030307005F3007408D9
:1009E000F0007508F100F10CF00CF113F10CF00CB3
:1009F000F113700895000F309705730897040800ED
:100A0000031383161208013FF000F1010318F10AE5
:100A100083124A08F400F5017D240630F2007008C4
:100A2000F4007108F500720803191B2DF50CF40C85
:100A3000F513FF3F142D7408F000F00D7010F00D49
:100A40007010F00D7010F00D701030307005F30064
:100A50007408F0007508F100F10CF00CF113F10CC2
:100A6000F00CF11370089B000F309D0573089D0476
:100A70000800031383122230FC00F801F901FA0187
:100A8000FB01FC0303196F2D0310FB0CFA0CF90C8E
:100A9000F80CF30CF20CF10CF00C031C412DFC03D0
:100AA0000319612D7408F80775080318750FF90705
:100AB00076080318760FFA0777080318770FFB07F5
:100AC000452D7408F80775080318750FF90776089F
:100AD0000318760FFA0777080318770FFB0708004B
:100AE000031383122408003A031D902D0130A40043
:100AF0000317831609100911031386100611081035
:100B000088108312121092101214F930831692007A
:100B1000B026121092101214F93083169200B626E5
:100B200008007F3003138312A5000030A400453075
:100B3000A9005230AA002D30AB003430AC00203078
:100B4000AD005230AE006530AF006D30B0006F3098
:100B5000B1007430B2006530B300B4012930B50083
:100B60000030A100080003138312F801F9011030CE
:100B7000FC00710DF80DF90D7408F8027508031CDE
:100B8000750FF9020318CB2D7408F80775080318C0
:100B9000750FF9070310F00DF10DFC0BB92D0800CE
:100BA000031383123B08A6003C08F1000130F0005B
:100BB00071080319DF2DF00D7010FF3FD92D70085B
:100BC000A700F0097008A8003B08840070088005A1
:100BD000841770088005080070253B08C9000126AD
:100BE00079268526080070253B08C900012679264C
:100BF0008126080070253B08C90001268926812628
:100C00000800031383124908250603190F2E49080B
:100C1000A5004908CA00C7244908CA0000250800E1
:100C200070253B08C9000126892685260800031384
:100C30008312C90101267D268D26A40108002430D7
:100C400003138312FB00FF30FA00FB0B282E2B2E20
:100C5000FA0B282E252E9E30FA00FA0B2D2E0800B6
:100C600003138312C903C9034908003C03183D2E2E
:100C7000C903000000000000342E00000000000046
:100C8000080003138312FB09FA09F909F809F80AA5
:100C90000319F90A0319FA0A0319FB0A08000313D6
:100CA0008312A3014908CA00FC230130A3000800F5
:100CB000203003138312F0004E30F100F201F301F3
:100CC0000800031383160711831212150C309704C2
:100CD0000800013003138312FA00FA0B6D2E000096
:100CE0000800031383168710831212150C309D041D
:100CF00008006126081488100800A1260810881032
:100D00000800712686140611080071268610061543
:100D1000080061260810881408009926861006111C
:100D20000800031383122108BB00A1013B08F00057
:100D3000080003138316871483121211F0309D05E7
:100D4000080003138316071583121211F03097055C
:100D50000800533003138312FA00FA0BAD2E08007B
:100D600003138312950117129712080003138312BD
:100D70009B011D129D120800FF3FFF3FFF3FFF3FF9
:04400E00F22FFFFF8F
:00000001FF
