:100000005028FF3FFF3FFF3F992199219921340854
:10001000A0003408840084178011001100108013A0
:10002000001380120012841380110011001080133D
:10003000001380120012801600168015801199217D
:100040008015801199218015801199218016001248
:100050008015801199218001801680158011800102
:10006000801780158011992180010016801580115C
:100070008001801580119921800180158011001662
:10008000801580119921800180158011001680163D
:10009000001780178015801199210130A1000800F8
:1000A000BB214330AA006F30AB007530AC006E301E
:1000B000AD007430AE006530AF007230B0003D303E
:1000C000B1002030B200B3010830B40004200C307D
:1000D000BA00FB200130BA00FB200130B40001302F
:1000E000B5002A30B6003921A20A0319A30A220852
:1000F000B4002308B5002430B600A6200130B400B7
:100100000A30B5002430B60039210330FC00FF303E
:10011000FB00FF30FA00FC0B8E289528FB0B912882
:100120009428FA0B91288E288B288C30FB00FF3006
:10013000FA00FB0B9C289F28FA0B9C289928A130D9
:10014000FA00FA0BA12800007428A52803138312D3
:100150003608840020308000360AF00070088400E1
:100160002030800002303607F00070088400203014
:10017000800003303607F0007008840020308000D3
:1001800004303607F00070088400303080000530FD
:100190003607F0007008840080010430B70035088D
:1001A000003C031DD5283408003C0318FA28370802
:1001B0003607B8000A30F400F5013408F0003508BD
:1001C000F1007C217808F0007908F1003030F00768
:1001D00038088400700880000A30F400F501340803
:1001E000F0003508F1007C217008B4007108B500FA
:1001F000B703CF28080003138312200884003A08AD
:1002000003190229801100118013001380120012BB
:10021000BA1B80173A1B0017BA1A80163A1A001632
:100220002108031915290011162900158015B3217D
:100230003A0803191B298011001180130013801242
:100240000012BA1980173A190017BA1880163A180E
:100250000016210803192E2900112F2900158015D9
:10026000B321801121080319372999213829C22186
:1002700008004B29803003138312B4005E29C0307C
:10028000B4005E299430B4005E29D430B4005E29F5
:100290008030B4005E29031383123408013A031935
:1002A0003A293408023A03193F293408033A03195A
:1002B00042293408043A0319452948293503F00036
:1002C0003408F0077008B4007008BA00FB20A101E0
:1002D000B7013708360784000008F00070080319DA
:1002E00079293708360784000008B900AA21B70A1F
:1002F00069290130A100080003138312F801F901F4
:100300001030FC00710DF80DF90D7408F802750835
:10031000031C750FF902031894297408F80775086F
:100320000318750FF9070310F00DF10DFC0B82296E
:100330000800243003138312FB00FF30FA00FB0B8C
:10034000A229A529FA0BA2299F299E30FA00FA0BAF
:10035000A729080003138312A1013908BA00FB2062
:100360000130A1000800013003138312FA00FA0BD8
:10037000B72900000800003003138312A2000030E8
:10038000A3000800533003138312FA00FA0BC629A6
:100390000800FF3FFF3FFF3FFF3FFF3FFF3FFF3FA3
:04400E00F22FFFFF8F
:00000001FF
