:100000000428FF3FFF3FFF3F3C3003138312AA0049
:100010003C30AB002030AC005230AD004130AE007F
:100020003430AF002030B0003E30B1003E30B2007E
:100030002030B3005330B4007430B5006130B600E6
:100040007230B7007430B800B9015330BA0045308F
:10005000BB004E30BC005330BD004F30BE005230AC
:10006000BF003030C0002030C1003D30C200203021
:10007000C300C4015330C5004530C6004E30C70030
:100080005330C8004F30C9005230CA003130CB0065
:100090002030CC003D30CD002030CE00CF010830E4
:1000A000D0004A210C30D600EB210130D600EB21E4
:1000B0000130D0000130D1002A30D2002922003096
:1000C000051A0130F2007208013A03195F28013065
:1000D000D600EB210130D0000130D1003A30D200FF
:1000E00029220230D0000130D1004530D20029222F
:1000F000D001C2207008A2007108A3007008D000CF
:100100007108D1002430D20096210130D0000A308D
:10011000D1002430D20029220130D000C220700842
:10012000A2007108A3007008D0007108D10024302B
:10013000D20096210230D0000A30D1002430D20003
:1001400029220330FC00FF30FB00FF30FA00FC0BDB
:10015000AA28B128FB0BAD28B028FA0BAD28AA2895
:10016000A7288C30FB00FF30FA00FB0BB828BB2817
:10017000FA0BB828B528A130FA00FA0BBD28000008
:100180007828C1280030031383125002031CDB2897
:100190005008033C031CDB285008F2000130F0003B
:1001A00072080319D728F00D7010FF3FD12870088E
:1001B00083168504FD2883125008043A031DE328A2
:1001C00083168516FD28053083125002031CFD2876
:1001D0005008073C031CFD2805305002F000700851
:1001E000F2000130F00072080319FA28F00D7010C7
:1001F000FF3FF428700883168904031383168312C3
:100200005008F2000130F000720803190B29F00DBC
:100210007010FF3F05297008031783168804023009
:10022000F400031383125008F000740803191C290A
:10023000F00D7010FF3F16297008C13F9F0010306D
:10024000FA00FA0B212900009F149F18252902307B
:10025000F4001E08D100D201740803193429D10D0D
:10026000D20D5110FF3F2D290630F40083161E08D1
:10027000F000740803194029F00CF013FF3F3A29ED
:100280000030F10083125108F00752080318013FB3
:10029000F10708008922892289225008A00050080D
:1002A0008400841780110011001080130013801245
:1002B00000128413801100110010801300138012AB
:1002C0000012801600168015801189228015801179
:1002D00089228015801189228016001280158011D4
:1002E0008922800180168015801180018017801579
:1002F00080118922800100168015801180018015EF
:1003000080118922800180158011001680158011CE
:100310008922800180158011001680160017801731
:100320008015801189220130A10008000313831277
:100330005208840020308000520AF00070088400C7
:100340002030800002305207F00070088400203016
:10035000800003305207F0007008840020308000D5
:1003600004305207F00070088400303080000530FF
:100370005207F0007008840080010430D300510857
:10038000003C031DC5295008003C0318EA29530806
:100390005207D4000A30F400F5015008F00051086B
:1003A000F1006C227808F0007908F1003030F00795
:1003B00054088400700880000A30F400F5015008E9
:1003C000F0005108F1006C227008D0007108D100D3
:1003D000D303BF29080003138312200884005608A2
:1003E0000319F229801100118013001380120012EA
:1003F000D61B8017561B0017D61A8016561A0016E1
:1004000021080319052A0011062A00158015A322C8
:10041000560803190B2A8011001180130013801253
:100420000012D619801756190017D61880165618BC
:100430000016210803191E2A00111F2A0015801515
:10044000A322801121080319272A8922282AAB22F6
:1004500008003B2A803003138312D0004E2AC0309C
:10046000D0004E2A9430D0004E2AD430D0004E2AEC
:100470008030D0004E2A031383125008013A03192A
:100480002A2A5008023A03192F2A5008033A03195E
:10049000322A5008043A0319352A382A5103F00049
:1004A0005008F0077008D0007008D600EB21A101B9
:1004B000D3015308520784000008F00070080319A4
:1004C000692A5308520784000008D5009A22D30AEB
:1004D000592A0130A100080003138312F801F90121
:1004E0001030FC00710DF80DF90D7408F802750854
:1004F000031C750FF9020318842A7408F80775089D
:100500000318750FF9070310F00DF10DFC0B722A9B
:100510000800243003138312FB00FF30FA00FB0BAA
:10052000922A952AFA0B922A8F2A9E30FA00FA0B09
:10053000972A080003138312A1015508D600EB2166
:100540000130A1000800013003138312FA00FA0BF6
:10055000A72A00000800533003138312FA00FA0B95
:10056000AF2A0800FF3FFF3FFF3FFF3FFF3FFF3F36
:04400E00F22FFFFF8F
:00000001FF
