:100000000428FF3FFF3FFF3F8A1527208A11073052
:10001000B400B501F2260830B400F3230C30C3005D
:1000200004250130C30004250030051A0130F20018
:100030007208013A031914280130C3000425AD01E8
:100040000A302D0203182F280230B4006B237008E9
:10005000A80771080318013FA907AD0A20280A3034
:10006000F4000030F5002808F0002908F1005524BC
:100070007008A8007108A900AA0A0319AB0A803009
:10008000023AF00080302B067002031D49282A082E
:10009000583C03185B28AA01AB012808B4002908C2
:1000A000B5002E30B600AF240230B4000B30B500DE
:1000B0002E30B6004A258030013AF0008030290603
:1000C0007002031D65282808F43C0318F028AC0AC8
:1000D000FF30B40028272808B4002908B5002E30C6
:1000E000B600AF240230B4000B30B5002E30B6009D
:1000F0004A25FA30B400B5016430B6000030B700CC
:1001000025220D30FC00FF30FB00FF30FA00FC0B15
:100110008A289128FB0B8D289028FA0B8D288A2895
:100120008728BF30FB00FF30FA00FB0B98289B2884
:10013000FA0B982895282B30FA00FA0B9D2800001E
:10014000000000002C08053C0318CB28AC01FF3050
:10015000B4000E271A30FC00FF30FB00FF30FA001D
:10016000FC0BB328BA28FB0BB628B928FA0BB62823
:10017000B328B0287F30FB00FF30FA00FB0BC1280A
:10018000C428FA0BC128BE285830FA00FA0BC6283A
:1001900000000000F028FF30B4008A150B208A11FF
:1001A0001A30FC00FF30FB00FF30FA00FC0BD928AE
:1001B000E028FB0BDC28DF28FA0BDC28D928D6281E
:1001C0007F30FB00FF30FA00FB0BE728EA28FA0B30
:1001D000E728E4285830FA00FA0BEC280000000069
:1001E000FF30B4008A1500208A111F28F628031357
:1001F00083127408F8027508031C750FF90276085B
:10020000031C760FFA027708031C770FFB02F30D2D
:100210000730FC00730DF80DF90DFA0DFB0D740895
:10022000731C2029F8027508031C750FF902760863
:10023000031C760FFA027708031C770FFB022D29A7
:10024000F80775080318750FF90776080318760F75
:10025000FA0777080318770FFB07F30DFC0B0A2941
:10026000720DF80DF90DFA0DFB0D7408731C46297B
:10027000F8027508031C750FF9027608031C760F47
:10028000FA027708031C770FFB025329F807750859
:100290000318750FF90776080318760FFA07770821
:1002A0000318770FFB07F20D0730FC00720DF80DF5
:1002B000F90DFA0DFB0D7408721C6C29F802750813
:1002C000031C750FF9027608031C760FFA027708F3
:1002D000031C770FFB027929F80775080318750FBF
:1002E000F90776080318760FFA0777080318770FCF
:1002F000FB07F20DFC0B5629710DF80DF90DFA0DE7
:10030000FB0D7408721C9229F8027508031C750F06
:10031000F9027608031C760FFA027708031C770FA0
:10032000FB029F29F80775080318750FF90776086F
:100330000318760FFA0777080318770FFB07F10DFC
:100340000730FC00710DF80DF90DFA0DFB0D740866
:10035000711CB829F8027508031C750FF90276089C
:10036000031C760FFA027708031C770FFB02C529DE
:10037000F80775080318750FF90776080318760F44
:10038000FA0777080318770FFB07F10DFC0BA2297A
:10039000700DF80DF90DFA0DFB0D7408711CDE29B6
:1003A000F8027508031C750FF9027608031C760F16
:1003B000FA027708031C770FFB02EB29F807750890
:1003C0000318750FF90776080318760FFA077708F0
:1003D0000318770FFB07F00D0730FC00700DF80DC8
:1003E000F90DFA0DFB0D7408701C042AF80275084B
:1003F000031C750FF9027608031C760FFA027708C2
:10040000031C770FFB02112AF80775080318750FF4
:10041000F90776080318760FFA0777080318770F9D
:10042000FB07F00DFC0BEE297018242A7408F8075E
:1004300075080318750FF90776080318760FFA0781
:1004400077080318770FFB0708003327E830F4001C
:100450000330F500F601F7014B267008BA00710869
:10046000BB007208BC007308BD003408F4003508F6
:10047000F500F601F701CF227008BA007108BB0041
:100480007208BC007308BD000330F400740803193F
:10049000502AF30CF20CF10CF00CF313FF3F472A37
:1004A0007008B8007108B90033273608F40037081F
:1004B000F500F601F7014B267008BE007108BF0079
:1004C0007208C0007308C1003808F0003908F10054
:1004D000F201F3010330F40074080319762AF00DD9
:1004E000F10DF20DF30D7010FF3F6D2A7008F4004E
:1004F0007108F5007208F6007308F7003E08F00076
:100500003F08F1004008F2004108F300CF227008D4
:10051000BA007108BB007208BC007308BD000A3045
:10052000F4000030F5003808F0003908F100D52655
:100530007008B8007108B90000307102031DA22ACA
:10054000033070020318A52A0800250884003A0821
:10055000F0003B08F1003C08F2003D08F3000130D8
:10056000BA02031CBB02031CBC02031CBD027008C0
:100570007104720473040319CC2A26088004380815
:10058000C2008A1538208A11270880053808C20061
:100590008A1538208A11A72A270880050800031326
:1005A0008312FC01F71BFC0AFD01FB01FA01F901B2
:1005B000F80173087204710470040319632B730843
:1005C0007706A000A01BFD09F71FF12AF409F50921
:1005D000F609F709F40A0319F50A0319F60A0319CB
:1005E000F70AF31FFE2AF009F109F209F309F00AEC
:1005F0000319F10A0319F20A0319F30A73087704BD
:10060000A000A01B1F2BF720FC1B3C2BFD1F632B06
:10061000F009F109F209F309F00A0319F10A0319C3
:10062000F20A0319F30AF809F909FA09FB09F80AA9
:100630000319F90A0319FA0A0319FB0A632BF71FB6
:10064000362BF31B302B7308FB007208FA0071087D
:10065000F9007008F800F301F201F101F001062B36
:10066000F301F201F101F001F00A0034F309F2099B
:10067000F109F009FC17032BF80A0319F90A031909
:10068000FA0A0319FB0A74087802031D062B750881
:100690007902031D062B76087A02031D062B7708C4
:1006A0007B02031D062BFB01FA01F901F801F00A98
:1006B0000319F10A0319F20A0319F30AF31F062BAF
:1006C000A0012016FF34A0017C1C692B8A1549204B
:1006D0008A11003F08000030031383123402031C08
:1006E000842B3408033C031C842B3408F2000130B3
:1006F000F00072080319802BF00D7010FF3F7A2B69
:10070000700883168504A62B83123408043A031D4F
:100710008C2B83168516A62B053083123402031CFE
:10072000A62B3408073C031CA62B05303402F0002E
:100730007008F2000130F00072080319A32BF00DCD
:100740007010FF3F9D2B70088316890403138316D6
:1007500083123408F2000130F00072080319B42B40
:10076000F00D7010FF3FAE2B70080317831688043E
:100770000230F400031383123408F00074080319E4
:10078000C52BF00D7010FF3FBF2B7008C13F9F00BD
:100790001030FA00FA0BCA2B00009F149F18CE2BC2
:1007A0000230F4001E08B500B60174080319DD2BF1
:1007B000B50DB60D3510FF3FD62B0630F40083166D
:1007C0001E08F00074080319E92BF00CF013FF3F2A
:1007D000E32B0030F10083123508F00736080318C8
:1007E000013FF10708008A1516208A118A15162084
:1007F0008A118A1516208A113408A1003408840051
:100800008417801100110010801300138012001251
:100810008413801100110010801300138012001245
:1008200080160016801580118A1516208A118015F1
:1008300080118A1516208A11801580118A151620BC
:100840008A1180160012801580118A1516208A11CF
:10085000800180168015801180018017801580111D
:100860008A1516208A1180010016801580118001DA
:10087000801580118A1516208A118001801580113B
:100880000016801580118A1516208A1180018015A6
:1008900080110016801600178017801580118A15A8
:1008A00016208A110130A200080003138312FD01F3
:1008B000F901F80171087004031900347108750614
:1008C000FA00FA1BFD09FB01F51F6B2CF409F50971
:1008D000F40A0319F50AF11F722CF009F109F00A64
:1008E0000319F10A71087504FA00FA1B872C822695
:1008F0007B189A2CFD1F0034F009F109F00A031946
:10090000F10AF809F909F80A0319F90A0034F51F80
:10091000962CF11B922C7108F9007008F800F10177
:10092000F0017A2CF101F001F00A0034F109F0092C
:10093000FB0A772CF80A0319F90A74087802031DD8
:100940007A2C75087902031D7A2CF901F801F00A56
:100950000319F10AF11F7A2C0000FF340800031379
:1009600083123608840020308000360AF0007008B8
:1009700084002030800002303607F00070088400C8
:100980002030800003303607F000700884002030EB
:10099000800004303607F00070088400303080009A
:1009A00005303607F0007008840080010430B7007D
:1009B0003508003C031DDE2C3408003C0318032DD1
:1009C00037083607B8000A30F400F5013408F000A3
:1009D0003508F100D5267808F0007908F1003030AC
:1009E000F00738088400700880000A30F400F50130
:1009F0003408F0003508F100D5267008B4007108FD
:100A0000B500B703D82C0800031383122108840013
:100A1000430803190B2D801100118013001380125D
:100A20000012C31B8017431B0017C31A8016431AFA
:100A30000016220803191E2D00111F2D0015801508
:100A40008A1562208A1143080319262D801100118E
:100A50008013001380120012C31980174319001766
:100A6000C31880164318001622080319392D0011E7
:100A70003A2D001580158A1562208A1180112208EE
:100A80000319462D8A1516208A11492D8A158A20A8
:100A90008A1108005C2D803003138312B4006F2D7F
:100AA000C030B4006F2D9430B4006F2DD430B4003A
:100AB0006F2D8030B4006F2D031383123408013A78
:100AC00003194B2D3408023A0319502D3408033A08
:100AD0000319532D3408043A0319562D592D3503A3
:100AE000F0003408F0077008B4007008C300042553
:100AF000A201B7013708360784000008F00070082B
:100B000003198C2D3708360784000008C2008A15A7
:100B100057208A11B70A7A2D0130A200080003136A
:100B20008312FB01FA01F9018030F800FD01F11F89
:100B30009F2DF109F009F00A0319F10AFD0AF51FCA
:100B4000A72DF509F409F40A0319F50AFD0AF10CB9
:100B5000F00C031CB42D7408F90775080318750F01
:100B6000FA070318FB0A0310F01FBC2D7408FA07DC
:100B70000318FB0A7508FB07FB0CFA0CF90CF80CC0
:100B8000031CA72D7D1CCF2DFB09FA09F909F809D3
:100B9000F80A0319F90A0319FA0A0319FB0A7B0870
:100BA000F3007A08F2007908F1007808F0000000FC
:100BB0000800031383161208013FF000F101031827
:100BC000F10A83124308F400F5018F250630F20084
:100BD0007008F4007108F50072080319F42DF50C83
:100BE000F40CF513FF3FED2D7408F000F00D7010BC
:100BF000F00D7010F00D7010F00D701030307005A9
:100C0000F3007408F0007508F100F10CF00CF1131A
:100C1000F10CF00CF11370089B000F309D05730868
:100C20009D040800031383161208013FF000F10130
:100C30000318F10A83124308F400F5018F250630EA
:100C4000F2007008F4007108F500720803192D2EE7
:100C5000F50CF40CF513FF3F262E7408F000F00D90
:100C60007010F00D7010F00D7010F00D701030302D
:100C70007005F3007408F0007508F100F10CF00C39
:100C8000F113F10CF00CF113700895000F3097057B
:100C9000730897040800031383122230FC00F80144
:100CA000F901FA01FB01FC030319812E0310FB0C6F
:100CB000FA0CF90CF80CF30CF20CF10CF00C031C10
:100CC000532EFC030319732E7408F80775080318D4
:100CD000750FF90776080318760FFA0777080318D7
:100CE000770FFB07572E7408F80775080318750F60
:100CF000F90776080318760FFA0777080318770FB5
:100D0000FB07080003138312710DF80DF90D740829
:100D1000F8027508031C750FF902F00DF10D0F3084
:100D2000FC00710DF80DF90D7408701C9D2EF80271
:100D30007508031C750FF902A22EF8077508031831
:100D4000750FF907F00DF10DFC0B912E7018AE2EFA
:100D50007408F80775080318750FF90700000800F4
:100D6000031383122308003A031DD42E0130A3007D
:100D700003178316091009110313861006110810B2
:100D800088108312121092101214F93083169200F8
:100D90008A1597208A11121092101214F9308316B6
:100DA00092008A1591208A11080003138312F8011A
:100DB000F9011030FC00710DF80DF90D7408F802FE
:100DC0007508031C750FF9020318ED2E7408F80757
:100DD00075080318750FF9070310F00DF10DFC0BE2
:100DE000DB2E0800031383123408A5003508F10038
:100DF0000130F00071080319012FF00D7010FF3F52
:100E0000FB2E7008A600F0097008A70034088400C3
:100E1000700880058417700880050800B026340823
:100E2000C20019278A156E208A118A1582208A111C
:100E3000080003138312420824060319272F4208CF
:100E4000A4004208C30012264208C300D9250800A6
:100E5000B0263408C20019278A1586208A118A15FF
:100E600082208A110800203003138312F0004E30D4
:100E7000F100F201F3010800FF3FFF3FFF3FFF3F9A
:100E8000FF3FFF3FFF3FFF3FFF3FFF3FFF3FFF3F72
:100E9000FF3FFF3FFF3FFF3FFF3FFF3FFF3FFF3F62
:100EA000FF3FFF3FFF3FFF3FFF3FFF3FFF3FFF3F52
:100EB000FF3FFF3FFF3FFF3FFF3FFF3FFF3FFF3F42
:100EC000FF3FFF3FFF3FFF3FFF3FFF3FFF3FFF3F32
:100ED000FF3FFF3FFF3FFF3FFF3FFF3FFF3FFF3F22
:100EE000FF3FFF3FFF3FFF3FFF3FFF3FFF3FFF3F12
:100EF000FF3FFF3FFF3FFF3FFF3FFF3FFF3FFF3F02
:100F0000FF3FFF3FFF3FFF3FFF3FFF3FFF3FFF3FF1
:100F1000FF3FFF3FFF3FFF3FFF3FFF3FFF3FFF3FE1
:100F2000FF3FFF3FFF3FFF3FFF3FFF3FFF3FFF3FD1
:100F3000FF3FFF3FFF3FFF3FFF3FFF3FFF3FFF3FC1
:100F4000FF3FFF3FFF3FFF3FFF3FFF3FFF3FFF3FB1
:100F5000FF3FFF3FFF3FFF3FFF3FFF3FFF3FFF3FA1
:100F6000FF3FFF3FFF3FFF3FFF3FFF3FFF3FFF3F91
:100F7000FF3FFF3FFF3FFF3FFF3FFF3FFF3FFF3F81
:100F8000FF3FFF3FFF3FFF3FFF3FFF3FFF3FFF3F71
:100F9000FF3FFF3FFF3FFF3FFF3FFF3FFF3FFF3F61
:100FA000FF3FFF3FFF3FFF3FFF3FFF3FFF3FFF3F51
:100FB000FF3FFF3FFF3FFF3FFF3FFF3FFF3FFF3F41
:100FC000FF3FFF3FFF3FFF3FFF3FFF3FFF3FFF3F31
:100FD000FF3FFF3FFF3FFF3FFF3FFF3FFF3FFF3F21
:100FE000FF3FFF3FFF3FFF3FFF3FFF3FFF3FFF3F11
:100FF000FF3FFF3FFF3FFF3FFF3FFF3FFF3FFF3F01
:101000008A11B0268A153408C2008A1119278A1558
:101010006E206A2008008A11B0268A153408C200A2
:101020008A1119278A1586206A20080024300313A4
:101030008312FB00FF30FA00FB0B1F282228FA0B5B
:101040001F281C289E30FA00FA0B242808007F3045
:1010500003138312A4000030A3000030A800003066
:10106000A9000030AA000030AB000030AC0008003E
:1010700003138312C203C2034208003C031845282D
:10108000C2030000000000003C2800000000000037
:10109000080003138312FB09FA09F909F809F80A91
:1010A0000319F90A0319FA0A0319FB0A08000313C2
:1010B0008312A2014208C3008A1104258A15013057
:1010C000A2000800013003138312FA00FA0B66280D
:1010D000000008007A20861006150800722008100B
:1010E00088140800031383160711831212150C309D
:1010F00097040800031383168710831212150C300F
:101100009D0408007A208614061108007220081435
:1011100088100800533003138312FA00FA0B8E284C
:101120000800031383129B011D129D120800031374
:1011300083129501171297120800FF3FFF3FFF3FF0
:04400E00F22FFFFF8F
:00000001FF
