S01400005061696E7465725F474C43442E73726563C4
S113000046C000006BC0000069C0000067C000006B
S113001065C0000063C0000061C000005FC0000054
S11300205DC000005BC0000059C0000057C0000064
S113003055C0000053C0000051C000004FC0000074
S11300404DC000004BC0000049C0000047C0000084
S113005045C0000043C0000041C000003FC0000094
S11300603DC000003BC0000039C0000037C00000A4
S113007035C0000033C0000031C000002FC00000B4
S11300802DC000002BC0000029C00000D90211249B
S11300901FBECFEFD0E4DEBFCDBF25E2A4E0B1E0C8
S11300A001C01D92A430B207E1F711E0A0E0B1E075
S11300B0E0E5F7E000E00BBF02C007900D92A4302A
S11300C0B107D9F710E0C7E4D0E003C02197FE01DF
S11300D082D2C634D107D1F7F4D138C391CF5E9A16
S11300E084E18A95F1F75E9884E18A95F1F70895A1
S11300F090E89BB988B9F3CF08956130710529F46C
S113010098E99BB988B9EBCF08956230710521F461
S113011094E99BB988B9E3CF0895FF920F931F9395
S1130120CF93DF930F2EF8EBFF2EF02DD0E804E9E8
S113013018E9DBB9F8B8D3DFC0E4DBB9C8B9CFDF5D
S11301400BB918B8CCDF1BB918B8C9DFCF5FC038FA
S1130150A1F7F39480ECF812ECCFE5E0F1E225E0AE
S113016035E20CC0DF0111971C9210823296E81719
S1130170F907C1F7FC012817390721F0CF0180588E
S11301809F4FF0CFDF91CF911F910F91FF90089572
S11301908FEF87B98AB91BB8A2DF80E88BB98FE3E8
S11301A088B99DDFBACF0895FF920F931F93CF9321
S11301B0DF93C82FF42E88230CF4B5C0603408F004
S11301C0B2C0162F169516951695D62FD770803473
S11301D018F0C05401E001C000E080E48C0F88DF17
S11301E088EB810F85DFFF20C9F040E4149FF00104
S11301F01124EC0FF11DEE0FFF1FE00FF11DEC5F5A
S1130200FE4D81E090E00D2E02C0880F991F0A94E4
S1130210E2F79081892B01117AC07DC080E4189F98
S1130220F0011124EC0FF11DEE0FFF1FE00FF11D83
S1130230EC5FFE4D8081282F30E00D2E02C03595F5
S113024027950A94E2F720FF5FC021E030E00D2EED
S113025002C0220F331F0A94E2F7821B55C040E408
S1130260149FF0011124EC0FF11DEE0FFF1FE00F9E
S1130270F11DEC5FFE4D81E090E002C0880F991FF4
S1130280DA95E2F79081892B80834DC02C2F30E0E2
S1130290802F90E0612F70E0F90140E4149FE00D9D
S11302A0F11D1124EE0FFF1FE80FF91FEC5FFE4D47
S11302B0A0814A2F50E00D2E02C0559547950A940F
S11302C0E2F740FF30C08B01002416950795079490
S11302D0169507950794102F002D020F131F000F7A
S11302E0111F080F191FF801EC5FFE4D81E090E02B
S11302F002C0880F991FDA95E2F7A81BA08313C0E8
S113030062E070E0FADEC2CF0111FACF08C062E009
S113031070E0F3DEA4CF61E070E0EFDEA0CF61E037
S113032070E0EBDEB3CFDF91CF911F910F91FF907F
S11303300895EF92FF920F931F93CF93DF930F2EA5
S1130340F8EBEF2EF02D10E80F2EF4E9FF2EF02D30
S1130350DFEF08E91BB9E8B8C2DEC0E41BB9C8B9CD
S1130360BEDEFBB8D8B9BBDE0BB9D8B9B8DECF5FF7
S1130370C038A1F7E39480ECE812ECCF45E851E2F1
S1130380C5E8D5E22FEF68E030E012C02C9320835B
S11303900197E1F73296E417F50729F0862F932F9A
S11303A0DF011197F3CF40585F4F4C175D0721F0E1
S11303B0FA01E058F109F2CFDF91CF911F910F912B
S11303C0FF90EF9008954F925F926F927F928F9279
S11303D09F92AF92BF92CF92DF92EF92FF920F93D0
S11303E01F93CF93DF93782E662E7A01C22F81E07C
S11303F090E05C01A41AB50A55230CF451C00F2EE9
S1130400F3E08F2E912CF02D00E010E0D62DD00FCC
S11304104C2F6D2FD72CDE0C8D2DC6DE572C500E95
S11304204C2FC62CCE0C6C2D852DBEDE4C2F6D2F83
S1130430D72DDE198D2FB8DE472C401A4C2F6C2D8A
S1130440842DB2DEC62CC01A4C2F6C2D8D2FACDE41
S11304504C2FD62DDE196D2F842DA6DE4C2F6C2D3E
S11304608D2DA2DE4C2F6D2F852D9EDE0F5F1F4F2D
S1130470BB201CF4A80CB91C0CC081E0E81AF108DC
S113048098012E193F092F5F3F4F220F331FA20EF1
S1130490B31E82E0880E911CE016F1060CF0B6CF74
S11304A0DF91CF911F910F91FF90EF90DF90CF904C
S11304B0BF90AF909F908F907F906F905F904F9080
S11304C0089511B88FEF84B963DE20E830E005C0E9
S11304D00197F1F72150310919F080E490E0F8CF49
S11304E041E060E280E460DE41E060E281E45CDE01
S11304F041E060E28FE358DE41E061E280E454DEF3
S113050041E06FE180E450DE81E08093241185B9FD
S11305100F2EFAE0CF2EF02DD12C00E0102F09DFA2
S1130520EC2CFD2CA8D05C01A6D0EC01A4D0A50134
S11305304F715078552334F441505109406E5F6F28
S11305404F5F5F4FBE016F737078772334F461504F
S11305507109606C7F6F6F5F7F4F8F7790789923FD
S113056024F4019780689F6F0196202F2CDF21E0EF
S1130570E21AF108B9F68FE79DE82BE58150904027
S11305802040E1F700C00000D02F11C0412F6C2F94
S11305908D2F0ADE89EF90E00197F1F700C000008B
S11305A0CF5FC03499F7DF5FD03809F4B8CFC12FDB
S11305B0EDCFE4E0F1E024E031E208C01192E81765
S11305C0F907E1F7FC012817390721F0CF01805C16
S11305D09F4FF4CF0895EE0FFF1F0024001C0BBEA5
S11305E00790F691E02D09948F929F92AF92BF925B
S11305F0CF92DF92EF92FF92CF93DF93EC01688169
S113060079818A819B81611571058105910521F4A8
S113061064E279ED8BE597E02DE133EF41E050E0C2
S113062038D049015A019B01AC01A7EAB1E44DD08D
S11306306B017C01ACEEB4EFA501940152D0DC0156
S1130640CB018C0D9D1DAE1DBF1DB7FF03C00197CF
S1130650A109B04888839983AA83BB839F77DF91DC
S1130660CF91FF90EF90DF90CF90BF90AF909F908D
S11306708F900895B9CF80E091E0B6CFA0E0B0E0CC
S11306808093000190930101A0930201B0930301B0
S11306900895052E97FB16F400940FD057FD05D04E
S11306A024D007FC02D046F408C0509540953095FC
S11306B021953F4F4F4F5F4F0895909580957095CA
S11306C061957F4F8F4F9F4F089531D0A59F900D17
S11306D0B49F900DA49F800D911D11240895B7FF20
S11306E0F4CFF3DF821B930B0895A1E21A2EAA1B09
S11306F0BB1BFD010DC0AA1FBB1FEE1FFF1FA217CE
S1130700B307E407F50720F0A21BB30BE40BF50BCA
S1130710661F771F881F991F1A9469F76095709553
S1130720809590959B01AC01BD01CF010895A29FD6
S1130730B001B39FC001A39F700D811D1124911DB1
S1130740B29F700D811D1124911D0895F894FFCF5F
S107075001000000A0
S9030000FC
