:10000000E22AFF3FFF3FFF3F031383127408F80209
:100010007508031C750FF9027608031C760FFA02A7
:100020007708031C770FFB02F30D0730FC00730DFC
:10003000F80DF90DFA0DFB0D7408731C2D28F8024C
:100040007508031C750FF9027608031C760FFA0277
:100050007708031C770FFB023A28F8077508031886
:10006000750FF90776080318760FFA077708031853
:10007000770FFB07F30DFC0B1728720DF80DF90D28
:10008000FA0DFB0D7408731C5328F8027508031C45
:10009000750FF9027608031C760FFA027708031C25
:1000A000770FFB026028F80775080318750FF9072A
:1000B00076080318760FFA0777080318770FFB07FF
:1000C000F20D0730FC00720DF80DF90DFA0DFB0D65
:1000D0007408721C7928F8027508031C750FF90260
:1000E0007608031C760FFA027708031C770FFB02D1
:1000F0008628F80775080318750FF907760803189E
:10010000760FFA0777080318770FFB07F20DFC0B41
:100110006328710DF80DF90DFA0DFB0D7408721CB2
:100120009F28F8027508031C750FF9027608031C56
:10013000760FFA027708031C770FFB02AC28F8074A
:1001400075080318750FF90776080318760FFA0774
:1001500077080318770FFB07F10D0730FC00710DCE
:10016000F80DF90DFA0DFB0D7408711CC528F80285
:100170007508031C750FF9027608031C760FFA0246
:100180007708031C770FFB02D228F80775080318BD
:10019000750FF90776080318760FFA077708031822
:1001A000770FFB07F10DFC0BAF28700DF80DF90D63
:1001B000FA0DFB0D7408711CEB28F8027508031C7E
:1001C000750FF9027608031C760FFA027708031CF4
:1001D000770FFB02F828F80775080318750FF90761
:1001E00076080318760FFA0777080318770FFB07CE
:1001F000F00D0730FC00700DF80DF90DFA0DFB0D38
:100200007408701C1129F8027508031C750FF90297
:100210007608031C760FFA027708031C770FFB029F
:100220001E29F80775080318750FF90776080318D3
:10023000760FFA0777080318770FFB07F00DFC0B12
:10024000FB28701831297408F80775080318750F12
:10025000F90776080318760FFA0777080318770F5F
:10026000FB0708001423E830F4000330F500F60122
:10027000F70172227008AA007108AB007208AC0086
:100280007308AD002408F4002508F500F601F70115
:10029000D8217008AA007108AB007208AC0073087E
:1002A000AD000330F400740803195D29F30CF20C5F
:1002B000F10CF00CF313FF3F54297008A8007108EB
:1002C000A90014232608F4002708F500F601F70119
:1002D00072227008AE007108AF007208B000730897
:1002E000B1002808F0002908F100F201F301033001
:1002F000F400740803198329F00DF10DF20DF30DCC
:100300007010FF3F7A297008F4007108F500720838
:10031000F6007308F7002E08F0002F08F1003008EF
:10032000F2003108F300D8217008AA007108AB0070
:100330007208AC007308AD000A30F4000030F5001C
:100340002808F0002908F100A9227008A800710807
:10035000A90000307102031DAF2903307002031899
:10036000B2290800210884002A08F0002B08F100B7
:100370002C08F2002D08F3000130AA02031CAB0286
:10038000031CAC02031CAD027008710472047304F8
:100390000319D529220880042808B200F522230871
:1003A00080052808B200F522B4292308800508003A
:1003B00003138312FC01F71BFC0AFD01FB01FA0188
:1003C000F901F801730872047104700403196C2AAE
:1003D00073087706A000A01BFD09F71FFA29F4098E
:1003E000F509F609F709F40A0319F50A0319F60ADB
:1003F0000319F70AF31F072AF009F109F209F309B3
:10040000F00A0319F10A0319F20A0319F30A73082F
:100410007704A000A01B282A0420FC1B452AFD1FEE
:100420006C2AF009F109F209F309F00A0319F10A3B
:100430000319F20A0319F30AF809F909FA09FB0981
:10044000F80A0319F90A0319FA0A0319FB0A6C2AB4
:10045000F71F3F2AF31B392A7308FB007208FA00C2
:100460007108F9007008F800F301F201F101F001E0
:100470000F2AF301F201F101F001F00A0034F3094F
:10048000F209F109F009FC170C2AF80A0319F90A14
:100490000319FA0A0319FB0A74087802031D0F2ACC
:1004A00075087902031D0F2A76087A02031D0F2AA8
:1004B00077087B02031D0F2AFB01FA01F901F801FD
:1004C000F00A0319F10A0319F20A0319F30AF31FD8
:1004D0000F2AA0012016FF34A0017C1C702A0623DD
:1004E000003F0800031383122230FC00F801F901D9
:1004F000FA01FB01FC030319A82A0310FB0CFA0CF8
:10050000F90CF80CF30CF20CF10CF00C031C7A2A29
:10051000FC0303199A2A7408F80775080318750F65
:10052000F90776080318760FFA0777080318770F8C
:10053000FB077E2A7408F80775080318750FF9077A
:1005400076080318760FFA0777080318770FFB076A
:10055000080003138312F801F9011030FC00710D3B
:10056000F80DF90D7408F8027508031C750FF902EF
:100570000318C12A7408F80775080318750FF907DE
:100580000310F00DF10DFC0BAF2A080003138312CA
:100590002408A1002508F1000130F00071080319BA
:1005A000D52AF00D7010FF3FCF2A7008A200F00985
:1005B0007008A30024088400700880058417700860
:1005C00080050800073003138312A400A501C6228A
:1005D000051AF32AD030A4000730A5006430A60025
:1005E0000030A7003221E82AF42A03138312B20351
:1005F000B2033208003C0318022BB20300000000D3
:100600000000F92A00000000000008000313831214
:10061000FB09FA09F909F809F80A0319F90A031993
:10062000FA0A0319FB0A0800203003138312F000B2
:100630004E30F100F201F3010800FF3FFF3FFF3FA2
:04400E00F22FFFFF8F
:00000001FF
