:100000004E28FF3FFF3FFF3F03138312FB01FA011E
:10001000F9018030F800FD01F11F1428F109F00901
:10002000F00A0319F10AFD0AF51F1C28F509F40965
:10003000F40A0319F50AFD0AF10CF00C031C292837
:100040007408F90775080318750FFA070318FB0AF7
:100050000310F01F31287408FA070318FB0A75080B
:10006000FB07FB0CFA0CF90CF80C031C1C287D1C7C
:100070004428FB09FA09F909F809F80A0319F90AE9
:100080000319FA0A0319FB0A7B08F3007A08F20045
:100090007908F1007808F0000000080003178316C3
:1000A000890103138610061108108810831212109C
:1000B00092101214F930831692000121121092103E
:1000C0001214F93083169200FB20EB20F320FF304E
:1000D000A0007920DC30A000B22001300605F1003C
:1000E0007108013A03196D28081088148610061546
:1000F0007828031383161208013FF000F10103185A
:10010000F10A83122008F400F50104200630F20001
:100110007008F4007108F500720803199428F50CB2
:10012000F40CF513FF3F8D287408F000F00D7010EB
:10013000F00D7010F00D7010F00D70103030700573
:10014000F3007408F0007508F100F10CF00CF113E5
:10015000F10CF00CF113700895000F30970573083F
:1001600097040800031383161208013FF000F10101
:100170000318F10A83122008F400F5010420063068
:10018000F2007008F4007108F50072080319CD2818
:10019000F50CF40CF513FF3FC6287408F000F00DC1
:1001A0007010F00D7010F00D7010F00D70103030F8
:1001B0007005F3007408F0007508F100F10CF00C04
:1001C000F113F10CF00CF11370089B000F309D053A
:1001D00073089D0408000313831607118312121578
:1001E0000C3097040800031383168710831212152E
:1001F0000C309D040800031383129B011D129D12F5
:100200000800031383129501171297120800FF3F8D
:04400E00F22FFFFF8F
:00000001FF
