:100000003229FF3FFF3FFF3F031383127408F802BA
:100010007508031C750FF9027608031C760FFA02A7
:100020007708031C770FFB02F30D0730FC00730DFC
:10003000F80DF90DFA0DFB0D7408731C2D28F8024C
:100040007508031C750FF9027608031C760FFA0277
:100050007708031C770FFB023A28F8077508031886
:10006000750FF90776080318760FFA077708031853
:10007000770FFB07F30DFC0B1728720DF80DF90D28
:10008000FA0DFB0D7408731C5328F8027508031C45
:10009000750FF9027608031C760FFA027708031C25
:1000A000770FFB026028F80775080318750FF9072A
:1000B00076080318760FFA0777080318770FFB07FF
:1000C000F20D0730FC00720DF80DF90DFA0DFB0D65
:1000D0007408721C7928F8027508031C750FF90260
:1000E0007608031C760FFA027708031C770FFB02D1
:1000F0008628F80775080318750FF907760803189E
:10010000760FFA0777080318770FFB07F20DFC0B41
:100110006328710DF80DF90DFA0DFB0D7408721CB2
:100120009F28F8027508031C750FF9027608031C56
:10013000760FFA027708031C770FFB02AC28F8074A
:1001400075080318750FF90776080318760FFA0774
:1001500077080318770FFB07F10D0730FC00710DCE
:10016000F80DF90DFA0DFB0D7408711CC528F80285
:100170007508031C750FF9027608031C760FFA0246
:100180007708031C770FFB02D228F80775080318BD
:10019000750FF90776080318760FFA077708031822
:1001A000770FFB07F10DFC0BAF28700DF80DF90D63
:1001B000FA0DFB0D7408711CEB28F8027508031C7E
:1001C000750FF9027608031C760FFA027708031CF4
:1001D000770FFB02F828F80775080318750FF90761
:1001E00076080318760FFA0777080318770FFB07CE
:1001F000F00D0730FC00700DF80DF90DFA0DFB0D38
:100200007408701C1129F8027508031C750FF90297
:100210007608031C760FFA027708031C770FFB029F
:100220001E29F80775080318750FF90776080318D3
:10023000760FFA0777080318770FFB07F00DFC0B12
:10024000FB28701831297408F80775080318750F12
:10025000F90776080318760FFA0777080318770F5F
:10026000FB0708001C250730AC00AD01DC24003082
:10027000051A0130F2007208013A03193729AC015E
:1002800023237008A8007108A9000130AC002323C3
:100290007008AA007108AB0080302906F000803099
:1002A000013A7002031D56292C30280203189629A2
:1002B00080302B06F0008030013A7002031D622965
:1002C0002C302A02031896292708003A0319962988
:1002D000A701A60AFA30AC00AD016430AE000030D0
:1002E000AF00E321FF30AC00FF240B30FC00FF30F7
:1002F000FB00FF30FA00FC0B7E298529FB0B8129CE
:100300008429FA0B81297E297B293330FB00FF30B9
:10031000FA00FB0B8C298F29FA0B8C29892987304D
:10032000FA00FA0B91290000000000008030013A29
:10033000F000803029067002031DA02928082C3CFB
:100340000318B7298030013AF00080302B06700284
:10035000031DAC292A082C3C0318B7292708013AA9
:100360000319B7290130A700FF30AC00FF2480300B
:100370002906F0008030013A7002031DC1292C309B
:1003800028020318CC29FF30AC00F8242708023AD1
:100390000319CC290230A70080302B06F0008030F2
:1003A000013A7002031DD6292C302A020318E129D4
:1003B000FF30AC0015252708033A0319E129033063
:1003C000A7003F29E2294E25E830F4000330F5006C
:1003D000F601F70167247008B2007108B3007208D3
:1003E000B4007308B5002C08F4002D08F500F601E0
:1003F000F70189227008B2007108B3007208B400D6
:100400007308B5000330F400740803190E2AF30CC6
:10041000F20CF10CF00CF313FF3F052A7008B0004A
:100420007108B1004E252E08F4002F08F500F601E2
:10043000F70167247008B6007108B7007208B800A9
:100440007308B9003008F0003108F100F201F3013F
:100450000330F40074080319342AF00DF10DF20D85
:10046000F30D7010FF3F2B2A7008F4007108F5009F
:100470007208F6007308F7003608F0003708F1003C
:100480003808F2003908F30089227008B2007108B8
:10049000B3007208B4007308B5000A30F4000030ED
:1004A000F5003008F0003108F100BF247008B000FA
:1004B0007108B10000307102031D602A0330700220
:1004C0000318632A0800230884003208F000330868
:1004D000F1003408F2003508F3000130B202031CC9
:1004E000B302031CB402031CB50270087104720449
:1004F00073040319862A240880043008BA002F25C3
:10050000250880053008BA002F25652A25088005B2
:10051000080003138312FC01F71BFC0AFD01FB0119
:10052000FA01F901F80173087204710470040319E7
:100530001D2B73087706A000A01BFD09F71FAB2A2F
:10054000F409F509F609F709F40A0319F50A03197C
:10055000F60A0319F70AF31FB82AF009F109F2099C
:10056000F309F00A0319F10A0319F20A0319F30A4D
:1005700073087704A000A01BD92A0420FC1BF62ACC
:10058000FD1F1D2BF009F109F209F309F00A031907
:10059000F10A0319F20A0319F30AF809F909FA0929
:1005A000FB09F80A0319F90A0319FA0A0319FB0AE5
:1005B0001D2BF71FF02AF31BEA2A7308FB007208B1
:1005C000FA007108F9007008F800F301F201F10176
:1005D000F001C02AF301F201F101F001F00A003448
:1005E000F309F209F109F009FC17BD2AF80A031909
:1005F000F90A0319FA0A0319FB0A74087802031DA1
:10060000C02A75087902031DC02A76087A02031DE4
:10061000C02A77087B02031DC02AFB01FA01F901F9
:10062000F801F00A0319F10A0319F20A0319F30A8F
:10063000F31FC02AA0012016FF34A0017C1C212B2F
:100640004025003F08000030031383122C02031CD6
:100650003C2B2C08033C031C3C2B2C08F2000130E3
:10066000F00072080319382BF00D7010FF3F322B89
:100670007008831685045E2B83122C08043A031D30
:10068000442B831685165E2B053083122C02031C27
:100690005E2B2C08073C031C5E2B05302C02F0005F
:1006A0007008F2000130F000720803195B2BF00DA6
:1006B0007010FF3F552B70088316890403138316AF
:1006C00083122C08F2000130F000720803196C2B21
:1006D000F00D7010FF3F662B700803178316880417
:1006E0000230F400031383122C08F000740803197D
:1006F0007D2BF00D7010FF3F772B7008C13F9F00DE
:100700001030FA00FA0B822B00009F149F18862BE2
:100710000230F4001E08AD00AE0174080319952BD9
:10072000AD0DAE0D2D10FF3F8E2B0630F40083165D
:100730001E08F00074080319A12BF00CF013FF3F02
:100740009B2B0030F10083122D08F0072E080318B0
:10075000013FF107080003138312FB01FA01F901BD
:100760008030F800FD01F11FBB2BF109F009F00A00
:100770000319F10AFD0AF51FC32BF509F409F40A60
:100780000319F50AFD0AF10CF00C031CD02B7408B8
:10079000F90775080318750FFA070318FB0A031009
:1007A000F01FD82B7408FA070318FB0A7508FB071B
:1007B000FB0CFA0CF90CF80C031CC32B7D1CEB2B67
:1007C000FB09FA09F909F809F80A0319F90A0319E2
:1007D000FA0A0319FB0A7B08F3007A08F200790889
:1007E000F1007808F00000000800031383161208D7
:1007F000013FF000F1010318F10A83123B08F400F5
:10080000F501AB230630F2007008F4007108F50022
:1008100072080319102CF50CF40CF513FF3F092C8A
:100820007408F000F00D7010F00D7010F00D7010E5
:10083000F00D701030307005F3007408F00075088A
:10084000F100F10CF00CF113F10CF00CF113700845
:1008500095000F309705730897040800031383165B
:100860001208013FF000F1010318F10A83123B085E
:10087000F400F501AB230630F2007008F4007108B3
:10088000F50072080319492CF50CF40CF513FF3F21
:10089000422C7408F000F00D7010F00D7010F00D87
:1008A0007010F00D701030307005F3007408F00017
:1008B0007508F100F10CF00CF113F10CF00CF113D0
:1008C00070089B000F309D0573089D0408000313FA
:1008D00083122230FC00F801F901FA01FB01FC034C
:1008E00003199D2C0310FB0CFA0CF90CF80CF30CFB
:1008F000F20CF10CF00C031C6F2CFC0303198F2C71
:100900007408F80775080318750FF90776080318B7
:10091000760FFA0777080318770FFB07732C740814
:10092000F80775080318750FF90776080318760F8E
:10093000FA0777080318770FFB07080003138312E1
:100940002108003A031DBE2C0130A10003178316B5
:10095000091009110313861006110810881083125C
:10096000121092101214F930831692007D25121085
:1009700092101214F93083169200772508000313A1
:100980008312F801F9011030FC00710DF80DF90D1A
:100990007408F8027508031C750FF9020318D72CA8
:1009A0007408F80775080318750FF9070310F00DA0
:1009B000F10DFC0BC52C0800031383122C08A300B7
:1009C0002D08F1000130F00071080319EB2CF00D37
:1009D0007010FF3FE52C7008A400F0097008A50016
:1009E0002C088400700880058417700880050800B2
:1009F0009E242C08BA00062563255F2508009E2446
:100A00002C08BA00062567255F250800031383120A
:100A10003A0822060319142D3A08A2003A08BB002E
:100A2000F5233A08BB002E2408009E242C08BA00A7
:100A300006256725732508007F3003138312A20063
:100A40000030A1000030A6000530A7000030A8004B
:100A50000030A9000030AA000030AB0008000313EA
:100A60008312BA03BA033A08003C03183C2DBA03B8
:100A7000000000000000332D00000000000008000E
:100A800003138312FB09FA09F909F809F80A031993
:100A9000F90A0319FA0A0319FB0A080020300313A4
:100AA0008312F0004E30F100F201F301080003134D
:100AB00083160711831212150C30970408006B255A
:100AC00086100615080057250814881008005725B9
:100AD0000810881408000313831687108312121558
:100AE0000C309D0408006B258614061108000313C2
:100AF00083129B011D129D1208000313831295019E
:100B0000171297120800FF3FFF3FFF3FFF3FFF3FD5
:04400E00F22FFFFF8F
:00000001FF
