:1000000053EF04F00000000000EF00F000000000DB
:0A0010000000000000000000F3D71C
:0C001C001A0E0D6E0D2EFED70000120013
:0C0028003A0E0D6E0D2EFED700001200E7
:0C003400020E0D6E0D2EFED70000120013
:10004000C30EC216A2C000F0003600900036009029
:100050000050C212E9DFC282C2A201D0FDD7C4CFD4
:0E00600001F0006AC3500012000E01121200DF
:0A006E00D6DF8A88D4DF8A981200DA
:0E0078008A988A848A96A1C083FFF5DF120061
:10008600FF0E956ED4DFD3DF8A848A988A868A88A3
:10009600C2DF83CFA1F08A988A96C9DFC8DF956A46
:0600A600A1C000F01200F1
:1000AC007F0E0001A115006E00C0A1F08A948A9603
:1000BC00BF0E001600C0A1F0008C00C0A1F000C063
:0600CC0083FFCFDF1200EC
:1000D2000B6A0A6A096A00500402F4CF09F0F3CFEE
:1000E20008F001500502F4CF0BF0F3CF0AF00050F4
:1000F2000502F3500926F4500A22E86A0B22015045
:100102000402F3500926F4500A22E86A0B2208C0BE
:1001120000F009C001F00AC002F00BC003F01200A7
:100122007F0E0001A115016E01C0A1F001AC03D048
:0C0132008A808A9202D08A908A82120091
:10013E008A948A96B80E0001A111836E91DF120087
:10014E00F250026EF29E0500FF6A0150FE6E0050E4
:08015E00FD6E02BEF28E1200DC
:100166000B0E0C6E620E0D6E0D2EFED70C2EFCD7EE
:040176000000120073
:10017A00340E0C6EF10E0D6E0D2EFED70C2EFCD722
:06018A000000000012005D
:1001900000019951070801E282D07D51975D006E00
:1001A0007EC001F0000E015687C004F0000E056EFF
:1001B00090DF00C09FF001C0A0F098C0A1F076DFF2
:1001C00099C0A1F0BCDF9B6B87519B5D49E29851C0
:1001D0007F0801E264D098C0A1F0A3DF99C0A1F02C
:1001E000AEDF98C0A1F062DF4EDF00C09CF04BDFB5
:1001F00000C09CF098C0A1F094DF99C0A1F09FDFEF
:1002000098C0A1F053DF9F518325F66EA051842141
:10021000F76E000EA0BFFF0E8521F86E0900F5CF26
:1002200000F000C09DF09F4BA02B001C9E6F09D0DA
:100230009EC09CF00FD09DC09CF00CD09D519C1B8B
:1002400009D09A51000AF4E09A51010AF4E09A5157
:10025000020AF4E09CC0A1F00FDF982B9B2BB4D7CF
:1002600098C0A1F05EDF99C0A1F069DF98C0A1F04D
:100270001DDFFF0E9D6F9E6B0CD09DC09CF09DC03E
:10028000A1F0FADE0CD09EC09CF09EC0A1F0F4DE7E
:1002900006D09A51000AF1E09A51010AF4E01200E6
:1002A0008B908B926ADF33C0E1FF34C0E2FF78C0ED
:1002B000E6FF31C000F032C001F049DF0150575C69
:1002C00002E10050565C010ED8B0000E0001976F9D
:1002D0004ADF49DF33C0E1FF34C0E2FF78C0E6FF08
:1002E00031C000F032C001F032DF0150575C02E152
:1002F0000050565C010ED8B0000E026E0250000194
:0A0300009715006E00C097F0120080
:10030A008B808B9235DF33C0E1FF34C0E2FF55C0EA
:0E031A00E6FF31C000F032C001F014DF120027
:100328008B908B8226DF33C0E1FF34C0E2FF78C0B8
:0E033800E6FF31C000F032C001F005DF120018
:0A03460091C056F092C057F012006B
:10035000000E0001915D0AE391517F0807E3000E52
:10036000925D04E392513F0801E301D04AD091C06D
:10037000A1F0D7DE92C0A1F0A133A19FA133A19F2C
:10038000A133A19FDCDE91C0A1F090DE7CDE00C035
:1003900096F079DE00C096F092C0A1F0A133A19F43
:1003A000A133A19FA133A19FCADE91C0A1F07EDE3F
:1003B000070E9215006E00C094F000C001F0010E0F
:1003C000006E015004E000360090FF0FFBD700C024
:1003D00094F0001C956F09D0955196170FD0945149
:1003E00096130CD09451961B09D09351000AF4E057
:1003F0009351010AF4E09351020AF4E096C0A1F08F
:040400003BDE1200CD
:1004040091C005F092C006F091C003F092C004F0D0
:100414000001914B922B93C000F094C001F095C061
:1004240002F0010E9327000E9423952300C0F6FFDB
:1004340001C0F7FF02C0F8FF0900F5CF00F003C0C8
:10044400E1FF04C0E2FF00C0E6FF03C0E9FF04C00F
:10045400EAFFEE5201E0D8D705C000F006C001F073
:02046400120084
:100466008A908A820001936B935107080EE393C02A
:10047600A1F062DE926B92513F0805E391C0A1F0B4
:10048600F8DD922BF8D7932BEFD78A928A80936B5D
:10049600935107080EE393C0A1F04EDE926B925182
:1004A6003F0805E391C0A1F0E4DD922BF8D7932B2A
:0404B600EFD712006A
:1004BA000001866B7F6B806B939A939893949396C3
:1004CA00939093928A9A956A8A948A968A908A8253
:1004DA008A8A3F0E836EC6DDC00E836EC3DD8A80B4
:1004EA008A923F0E836EBEDDC00E836EBBDD1200A4
:1004FA0094909492840E566E030E576E91C081F0BA
:10050A0092C082F093C074F094C075F095C055F013
:10051A0096C078F0536A546A0001706B716B1200CE
:10052A00400E316E000E326EA20E336E000E346E25
:0C053A00C26A070EC012C08EC280120000
:10054600086A096A100E0C6E013408360936045022
:10055600085E0550D8A0053C095ED8B007D0045007
:1005660008260550D8B0053C0926D8900036013635
:060576000C2EEAD7120072
:10057C0091DE005201E1FCD7000E821902E1800EDF
:10058C00811917E1000E751902E1400E741911E181
:10059C00B6DE0A0E005C00017B6F000E01587C6F0A
:1005AC00BDDE0A0E005C0001796F000E01587A6FF7
:1005BC0010D0A5DE030E005C00017B6F000E01580D
:1005CC007C6FACDE030E005C0001796F000E0158ED
:0405DC007A6F120020
:1005E0005FDE005201E1FCD7000E821902E1800EAD
:1005F000811917E1000E751902E1400E741911E11D
:1006000084DE050E00240001766F000E0120776F56
:100610008BDE050E00240001726F000E0120736F47
:1006200010D073DE030E00240001766F000E01204F
:10063000776F7ADE030E00240001726F000E012036
:04064000736F1200C2
:100644000001966B8651000A0EE1050E876F070EB6
:10065400886F420E836F0A0E846F000E856F200E22
:100664007D6F000E7E6F96519125E96E000E9221EA
:10067400EA6EEE5216E096519125E96E000E922133
:10068400EA6EEECF97F093C098F094C099F095C0BD
:100694009AF07CDD8751010F006E00509327962B52
:0406A400E2D7120087
:1006A800030E0F01386F396B3A6B3B6B030E926E7A
:1006B80000DF916BD4DE35DF800E916F000E926FF4
:1006C800400E936F000E946F956B010E966F11DFBD
:0C06D800840E916F030E926F32DE120050
:1006E4000001916B3F0E926F010E936F2FDE5A0E35
:1006F400916F000E926F540E936F0C0E946F000E58
:10070400956F7EDE00C091F001C092F00C0E936FE5
:10071400030E946F010E956F93DF2EDF290E0B6E7F
:10072400960E0C6E7F0E0D6E0D2EFED70C2EFCD782
:100734000B2EFAD7916B3F0E926F936B07DE7F0EF1
:10074400916F926B010E936F01DE5A0E916F000E42
:10075400926F660E936F0C0E946F000E956F50DEC1
:1007640000C091F001C092F00C0E936F030E946FD1
:10077400010E956F65DF5A0E916F000E926F780E21
:10078400936F0C0E946F000E956F3ADE00C091F0DB
:1007940001C092F00C0E936F040E946F010E956FCE
:1007A4004FDF1CDF290E0B6E960E0C6E7F0E0D6E46
:0E07B4000D2EFED70C2EFCD70B2EFAD71200FE
:1007C2000900F5CFE6FF0006FBE10106F9E11200A0
:1007D20089C0E1FF8AC0E2FF7BC0E6FF7CC0E6FF82
:1007E2008BC0E1FF8CC0E2FF76C0E6FF77C0E6FF78
:1007F2008DC0E1FF8EC0E2FF79C0E6FF7AC0E6FF5E
:100802008FC0E1FF90C0E2FF72C0E6FF73C0E6FF57
:020812001200D2
:1008140000018D6B050E8D5D0AE28D518B25E16E15
:10082400000E8C21E26E200EE66E8D2BF3D78D51D7
:100834008B25E16E000E8C21E26EE66A8D078D51E8
:100844008B258E6F000E8C218F6F0A0E046E000EA6
:10085400056E89C000F08AC001F073DE08C000F0A4
:1008640009C001F0300E00268EC0E1FF8FC0E2FF08
:1008740000C0E6FF0A0E046E000E056E89C000F08B
:100884008AC001F05EDE00C089F001C08AF0000E6B
:10089400011802E1000E001801E102D08D07CFD744
:0208A400120040
:1008A6004BEC06F0FEDE5A0E916F000E926F8A0E2A
:1008B600936F0C0E946F000E956FA1DD00C091F042
:1008C60001C092F0200E936F030E946F010E956F88
:1008D600B6DE290E0B6E960E0C6E7F0E0D6E0D2E6D
:1008E600FED70C2EFCD70B2EFAD7916BB9DDF7DEAF
:1008F600580E896F000E8A6F3F0E8B6F000E8C6F3D
:100906003B0E8D6F000E8E6F3D0E8F6F000E906F3B
:100916005DDF58C089F059C08AF0410E8B6F000E1A
:100926008C6F75DF3FC089F040C08AF0470E8B6F31
:10093600000E8C6F6CDF3BC089F03CC08AF04D0E18
:100946008B6F000E8C6F63DF3DC089F03EC08AF06E
:10095600350E8B6F000E8C6F5ADF916B81DD5A0E50
:10096600916F000E926F3E0E936F0C0E946F000EF9
:10097600956F45DD00C091F001C092F0010E936FB6
:10098600010E946F010E956F5ADE230E916F000EC5
:10099600926F010E936F030E946F010E956F4FDEEB
:1009A6002A0E916F000E926F010E936F040E946FD4
:1009B600010E956F44DE150E916F000E926F010EBB
:1009C600936F050E946F010E956F39DE1C0E916FB5
:1009D600000E926F010E936F060E946F010E956FC7
:1009E6002EDE410E916F000E926F320E936F030E44
:1009F600946F010E956F23DE470E916F000E926F76
:100A0600320E936F040E946F010E956F18DE4D0E25
:100A1600916F000E926F320E936F050E946F010E5A
:100A2600956F0DDE350E916F000E926F320E936F3D
:0C0A3600060E946F010E956F02DEFFD7D4
:100C960010EE15F01C0E006E010E016E220EF66EA1
:0E0CA6000C0EF76E000EF86EE1EC03F012007B
:100A4200000000000000005F000000070007001423
:100A52007F147F14242A7F2A1223130864623649E2
:100A62005522500005030000001C224100004122D3
:100A72001C00082A1C2A0808083E080800503000FA
:100A8200000808080808003030000020100804029E
:100A92003E5149453E00427F400042615149462154
:100AA20041454B311814127F1027454545393C4AC0
:100AB2004949300171090503364949493606494910
:100AC200291E0036360000005636000000081422A7
:100AD200411414141414412214080002015109068D
:100AE200324979413E7E1111117E7F494949363E94
:100AF200414141227F4141221C7F494949417F09AD
:100B02000901013E414151327F0808087F00417FBF
:100B120041002040413F017F081422417F40404074
:100B2200407F0204027F7F0408107F3E4141413E24
:100B32007F090909063E4151215E7F09192946466E
:100B42004949493101017F01013F4040403F1F2097
:100B520040201F7F2018207F631408146303047849
:100B62000403615149454300007F414102040810DA
:100B72002041417F00000402010204404040404005
:100B8200000102040020545454787F484444383809
:100B920044444420384444487F3854545418087E0E
:100BA200090102081454543C7F0804047800447D6F
:100BB20040002040443D00007F10284400417F4017
:100BC200007C041804787C080404783844444438CF
:100BD2007C14141408081414187C7C0804040848B3
:100BE20054545420043F4440203C4040207C1C206C
:100BF20040201C3C4030403C44281028440C5050BB
:100C0200503C4464544C44000836410000007F00CC
:100C120000004136080008082A1C08081C2A080897
:070C220059206D696E3A00D4
:070C290059206D61783A00CB
:070C300058206D696E3A00C7
:070C370058206D61783A00BE
:100C3E0043616C6962726174696F6E20636F6E736B
:060C4E0074616E74730076
:100C5400544F55434820424F54544F4D204C454621
:020C640054003A
:100C6600202020202020202020202020202020207E
:020C760020005C
:100C7800544F5543482055505045522052494748F3
:020C8800540016
:0C0C8A0043414C4942524154494F4E0036
:020000040030CA
:0D000100331F3CFFBD81FF0FC00FE00F401B
:00000001FF
