:100000000428FF3FFF3FFF3F031783160910091124
:100010000313861006110810881083121210921014
:100020001214F930831692003D211210921012140E
:10003000F93083169200372127212F21BE30A000EE
:10004000B520BE30A000EE200810881486100615DA
:100050003330FC00FF30FB00FF30FA00FC0B31288E
:100060003828FB0B34283728FA0B342831282E285F
:10007000FD30FB00FF30FA00FB0B3F284228FA0B53
:100080003F283C28B530FA00FA0B442800008614BB
:1000900006111530FC00FF30FB00FF30FA00FC0BAE
:1000A00052285928FB0B55285828FA0B5528522856
:1000B0004F286630FB00FF30FA00FB0B60286328F6
:1000C000FA0B60285D281230FA00FA0B6528000050
:1000D000000024286A2803138312FB01FA01F901A6
:1000E0008030F800FD01F11F7B28F109F009F00ACA
:1000F0000319F10AFD0AF51F8328F509F409F40A2A
:100100000319F50AFD0AF10CF00C031C9028740881
:10011000F90775080318750FFA070318FB0A03108F
:10012000F01F98287408FA070318FB0A7508FB07E4
:10013000FB0CFA0CF90CF80C031C83287D1CAB2873
:10014000FB09FA09F909F809F80A0319F90A031968
:10015000FA0A0319FB0A7B08F3007A08F20079080F
:10016000F1007808F000000008000313831612085D
:10017000013FF000F1010318F10A83122008F40096
:10018000F5016B200630F2007008F4007108F500EC
:1001900072080319D028F50CF40CF513FF3FC92899
:1001A0007408F000F00D7010F00D7010F00D70106C
:1001B000F00D701030307005F3007408F000750811
:1001C000F100F10CF00CF113F10CF00CF1137008CC
:1001D00095000F30970573089704080003138316E2
:1001E0001208013FF000F1010318F10A8312200800
:1001F000F400F5016B200630F2007008F40071087D
:10020000F500720803190929F50CF40CF513FF3FEA
:1002100002297408F000F00D7010F00D7010F00D50
:100220007010F00D701030307005F3007408F0009D
:100230007508F100F10CF00CF113F10CF00CF11356
:1002400070089B000F309D0573089D040800031380
:1002500083160711831212150C309704080003133C
:1002600083168710831212150C309D0408000313A7
:1002700083129B011D129D12080003138312950126
:10028000171297120800FF3FFF3FFF3FFF3FFF3F5E
:04400E00F22FFFFF8F
:00000001FF
