:100000000428FF3FFF3FFF3F0317831689010313B7
:1000100086100611081088108710071183128714A4
:10002000071508108814861006153330FC00FF30C1
:10003000FB00FF30FA00FC0B1E282528FB0B2128B3
:100040002428FA0B21281E281B28FD30FB00FF3036
:10005000FA00FB0B2C282F28FA0B2C282928B53066
:10006000FA00FA0B31280000861406111530FC0046
:10007000FF30FB00FF30FA00FC0B3F284628FB0B4B
:1000800042284528FA0B42283F283C286630FB00CE
:10009000FF30FA00FB0B4D285028FA0B4D284A2858
:1000A0001230FA00FA0B52280000000011285728DD
:04400E00F22FFFFF8F
:00000001FF
