S01400005374726565744C69676874732E737265632E
S11300000C9456000C9460000C9460000C946000F6
S11300100C9460000C9460000C9460000C946000DC
S11300200C9460000C9460000C9460000C946000CC
S11300300C9460000C9460000C9460000C946000BC
S11300400C9460000C9460000C9460000C946000AC
S11300500C9460000C9460000C9460000C9460009C
S11300600C9460000C9460000C9460000C9460008C
S11300700C9460000C9460000C9460000C9460007C
S11300800C9460000C9460000C9460000C9460006C
S11300900C9460000C9460000C9460000C9460005C
S11300A00C9460000C9460000C94600011241FBE3A
S11300B0CFEFDAE0DEBFCDBF0E9462000C94A9004E
S11300C00C9400008FEF84B951E043E024E032E067
S11300D055B96FEF73ED80E3615070408040E1F7F4
S11300E000C0000045B99FEFE3EC69E09150E040A7
S11300F06040E1F700C0000025B97FEF8BE49DE18B
S1130100715080409040E1F700C0000083E090E02F
S113011015B8EFEF60E772E0E15060407040E1F73E
S113012000C0000025B9EFEF60E772E0E1506040E5
S11301307040E1F700C00000019751F735B98FEF27
S113014097E8E3E181509040E040E1F700C000000F
S1090150BFCFF894FFCFBD
S9030000FC
