:100000000428FF3FFF3FFF3F533003138312AA0032
:100010004530AB004E30AC005330AD004F30AE0039
:100020005230AF003030B0002030B1003D30B2006F
:100030002030B300B4011A30FC00FF30FB00FF3069
:10004000FA00FC0B24282B28FB0B27282A28FA0B64
:100050002728242821287F30FB00FF30FA00FB0BE3
:1000600032283528FA0B32282F285830FA00FA0B9C
:100070003728000000000830B700AA200C30BD006F
:100080004B210130B7000130B8002A30B900892176
:10009000FF3083168500FF3003178800C13003133B
:1000A00083129F009F149F1853280230F4001E08EB
:1000B000B500B601740803196228B50DB60D3510E8
:1000C000FF3F5B280630F40083161E08F00074081A
:1000D00003196E28F00CF013FF3F68280030F10080
:1000E00083123508F00736080318013FF10770083E
:1000F000A2007108A3007008B7007108B80024308E
:10010000B900F6200130B7000A30B8002430B90039
:1001100089210330FC00FF30FB00FF30FA00FC0BAC
:1001200092289928FB0B95289828FA0B9528922855
:100130008F288C30FB00FF30FA00FB0BA028A3288F
:10014000FA0BA0289D28A130FA00FA0BA528000080
:100150005228A928E921E921E9213708A000370818
:100160008400841780110011001080130013801286
:1001700000128413801100110010801300138012EC
:1001800000128016001680158011E921801580115B
:10019000E92180158011E921801600128015801157
:1001A000E92180018016801580118001801780155B
:1001B0008011E921800100168015801180018015D1
:1001C0008011E921800180158011001680158011B1
:1001D000E921800180158011001680160017801714
:1001E00080158011E9210130A1000800031383125A
:1001F0003908840020308000390AF000700884003B
:100200002030800002303907F00070088400203070
:10021000800003303907F00070088400203080002F
:1002200004303907F0007008840030308000053059
:100230003907F0007008840080010430BA003808E3
:10024000003C031D25293708003C03184A293A08B9
:100250003907BB000A30F400F5013708F000380810
:10026000F100CC217808F0007908F1003030F00777
:100270003B088400700880000A30F400F50137085C
:10028000F0003808F100CC217008B7007108B80000
:10029000BA031F29080003138312200884003D08B5
:1002A00003195229801100118013001380120012CB
:1002B000BD1B80173D1B0017BD1A80163D1A001686
:1002C00021080319652900116629001580150322EC
:1002D0003D0803196B29801100118013001380124F
:1002E0000012BD1980173D190017BD1880163D1862
:1002F0000016210803197E2900117F290015801599
:1003000003228011210803198729E92188290B225A
:1003100008009B29803003138312B700AE29C03038
:10032000B700AE299430B700AE29D430B700AE295B
:100330008030B700AE29031383123708013A03193E
:100340008A293708023A03198F293708033A031913
:1003500092293708043A0319952998293803F0009F
:100360003708F0077008B7007008BD004B21A101E5
:10037000BA013A08390784000008F0007008031930
:10038000C9293A08390784000008BC00FA21BA0AD2
:10039000B9290130A100080003138312F801F90103
:1003A0001030FC00710DF80DF90D7408F802750895
:1003B000031C750FF9020318E4297408F80775087F
:1003C0000318750FF9070310F00DF10DFC0BD2297E
:1003D0000800243003138312FB00FF30FA00FB0BEC
:1003E000F229F529FA0BF229EF299E30FA00FA0BCF
:1003F000F729080003138312A1013C08BD004B211B
:100400000130A1000800013003138312FA00FA0B37
:10041000072A00000800533003138312FA00FA0B76
:100420000F2A0800FF3FFF3FFF3FFF3FFF3FFF3F17
:04400E00F22FFFFF8F
:00000001FF
