:1000000016EF00F00000000000EF00F0000000001C
:0A0010000000000000000000F3D71C
:10001C000900F5CFE6FF0006FBE10106F9E112004D
:10002C00926A936A946A956A966A896A8A6A8B6AF2
:10003C008C6A8D6A290E0B6E960E0C6E7F0E0D6EF1
:10004C000D2EFED70C2EFCD70B2EFAD7FF0E896E79
:10005C00FF0E8A6EFF0E826EFF0E8C6EFF0E8D6E83
:10006C00290E0B6E960E0C6E7F0E0D6E0D2EFED79E
:0C007C000C2EFCD70B2EFAD7D8D7FFD7DC
:020000040030CA
:0D000100331F3CFFBD81FF0FC00FE00F401B
:00000001FF
